:020000040800F2
:10000000A00B0020010100085F2900082D22000834
:100010005D29000867080008153600080000000088
:10002000000000000000000000000000CF300008C9
:10003000690800080000000081290008D13000088C
:100040001B0100081B0100081B0100081B01000820
:100050001B0100081B0100081B0100081B01000810
:100060001B0100081B0100081B0100081B01000800
:100070001B0100081B0100081B0100081B010008F0
:100080001B0100081B0100081B0100081B010008E0
:100090001B0100081B0100081B0100081B010008D0
:1000A0001B0100081B0100081B0100081B010008C0
:1000B0001B010008AD3100081B0100081B010008EE
:1000C0001B0100081B0100081B0100081B010008A0
:1000D0001B010008FD350008093600081B01000857
:1000E0001B0100081B0100081B010008DFF80CD0F1
:1000F00000F080FB0048004755420008A00B00209C
:100100000648804706480047FEE7FEE7FEE7FEE7B1
:10011000FEE7FEE7FEE7FEE7FEE7FEE765310008E3
:10012000ED000008202A04DB203A21FA02F0002129
:10013000704721FA02F3D040C2F1200291400843F7
:1001400019467047D2B201E000F8012B491EFBD2DC
:1001500070470022F6E710B513460A4604461946D2
:10016000FFF7F0FF204610BD420005D0C0F3C75294
:100170005242914201DC0020704700EBC1507047B1
:100180002DE9FE4F804681EA0300C00F0C46009027
:1001900021F0004123F00045B8EB0200A94105D24F
:1001A0004046214690461C460B46024623F000403E
:1001B000104347D0270DC7F30A00C3F30A5102903A
:1001C000401A019040286BDAC3F3130040F4801BFF
:1001D0000098924620B10023D2EB030A63EB0B0B8D
:1001E00001985946C0F14002504600F0BDF906465C
:1001F0000D4650465946019A00F0C5F910EB08002B
:100200006141002487EA115284EAE7731A4340D01F
:10021000009A62B3019A012A4FEA075215DC001BCB
:1002200061EB02014FF0004202EA0752CDE90042C1
:10023000001C41F5801132462B4600F0FCF903B05A
:10024000BDE8F08F40462146F9E7001B61EB020153
:10025000001C41F5801300185B412018A2F500171F
:1002600047EB030140EAD570B6196D4111E06D0806
:100270004FEA360645EAC0754FEA0752001B61EBAC
:100280000201001C41F5801149084FEA30000019B5
:10029000514132462B4603B0BDE8F04F00F0BCB9E7
:1002A0000098012240000023D0EB020263EBE073D0
:1002B000009821464FEAE074B8EB000061EB0401BE
:1002C000E9E783F000435BE781F0004158E72DE95F
:1002D000FE4F81EA030404F0004421F00041009441
:1002E0004FF0000B23F0004350EA01045ED052EAC5
:1002F00003045BD0C3F30A54C1F30A552C44A4F29F
:10030000F3340194A0FB0254C1F3130141F48011B2
:10031000C3F3130343F4801301FB024400FB034EB9
:10032000840A970A44EA815447EA8357A4FB076882
:1003300002958D0A05FB07854FEA932C04FB0C54AC
:100340002705029D4FEA065847EA1637B5EB080520
:100350006EEB070C870E920E47EA811742EA831272
:10036000A7FB0201B6EB0B0164EB00042B0D43EA83
:100370000C335E1844EB1C50DA465146E7FB020191
:10038000C5F313044FEA0B3343EA14534FEA043224
:10039000019C43EA0603A4F10C040294009CCDE9FD
:1003A00000B400F048F903B0BDE8F08F002001462A
:1003B000F9E72DE9F04D81EA030404F0004B21F048
:1003C000004514464FF0000A23F0004150EA0502B0
:1003D00020D054EA01021DD0C5F30A570246C5F3E6
:1003E0001303C1F31300C1F30A5640F4801543F41C
:1003F0008013A7EB0608101BD64608F2FD3873EBF6
:10040000050002D308F1010801E092185B41B8F140
:10041000000F03DA00200146BDE8F08D00204FF404
:100420008011064684460EE0171B73EB050705D3C3
:10043000121B63EB050306434CEA010C49084FEA23
:10044000300092185B4150EA0107EDD152EA0300F7
:1004500012D082EA040083EA0501084305D0101B8C
:10046000AB4106D20122002306E000224FF00043F8
:1004700002E06FF0010253101AEB06004CEB08513A
:1004800010EB0A0041EB0B01BDE8F04D00F0C4B8E1
:10049000C10F80EAE0700844CA079623002100F0EB
:1004A0008DB870B5C1F30A5201F000450024C1F3C4
:1004B000130140F2FF3341F480119A4201DA002027
:1004C00070BD40F233439A42A2F2334203DC5242FF
:1004D000FFF728FE00E090402C43F1D0404270BD71
:1004E00000F0004230F000400AD0C10D01F560710B
:1004F000C0F3160042EA0151C20840071143704799
:100500000020014670472DE9F05F05460020924625
:100510009B4688460646814640241BE028464146C5
:1005200047462246FFF7FEFD53465A46C01A914100
:1005300010D311461846224600F016F82D1A67EB24
:1005400001084F4622460120002100F00DF817EB6C
:1005500000094E41201EA4F10104DFDC484631466B
:100560002A464346BDE8F09F202A04DB203A00FAE1
:1005700002F1002070479140C2F1200320FA03F3FA
:10058000194390407047202A06DBCB17203A41FAE6
:1005900002F043EAE07306E041FA02F3D040C2F110
:1005A000200291400843194670470029A8BF7047B0
:1005B000401C490008BF20F00100704710B4B0FA99
:1005C00080FC00FA0CF050EA010404BF10BC704734
:1005D00049B1CCF1200421FA04F411FA0CF118BF4E
:1005E000012121430843A3EB0C01CB1D4FEA00611D
:1005F0004FEA102042BF002010BC704700EBC350F0
:1006000010440029A4BF10BC7047401C490008BF1B
:1006100020F0010010BC704710B5141E73F10004E7
:1006200008DA401C41F1000192185B411A4301D1E4
:1006300020F0010010BD2DE9F04D92469B4611B10E
:10064000B1FA81F202E0B0FA80F220329046FFF770
:100650008BFF04460F4640EA0A0041EA0B0153466D
:100660005A46084313D0114653EA010019D0C8F185
:1006700040025046FFF756FD05460E465046594685
:100680004246FFF771FF084305D0012004E02046F1
:100690003946BDE8F08D0020054346EAE0762C435C
:1006A00037430A986305E40AA0EB08000022FD0A1C
:1006B00044EA47540A3002D500200146E9E7010523
:1006C00010196941DDE9084500196941BDE8F04D9F
:1006D000A2E770B521F0004303430CD0C1F30A55E3
:1006E0000024D5EB040564EB0403D617AD1AB3411F
:1006F00002DB0020014670BD201841EB025170BDA5
:100700002DE9F04D00231A461B1A8A4103DB002015
:100710000146BDE8F08DC1F30A52C1F3130141F463
:1007200080154FF0000BD10702D100186D41521E09
:100730000027044640F2FF11384601EB620A3E46AC
:100740008046024600204FF48011FFF7EBFCC219EF
:100750007141BB1846EB0100B4EB030C75EB000CC8
:1007600004D3E41A65EB000517460E46241908F178
:1007700001006D4180463428E3DDF91946EB06009F
:10078000091BA84103D24FF0FF32134601E00022BB
:1007900013461BEB070046EB0A51BDE8F04DFFF78F
:1007A0003BBF0EB5C10F80EAE0700844CA070021C4
:1007B00040F233438DE80E000A460B46FFF73BFF3D
:1007C00003B000BD30B5041E71F1000404DB4FF02E
:1007D0000044404264EB0101141E73F1000405DB88
:1007E0001C464FF00043524263EB0403994208BF9A
:1007F000904230BD064C074D06E0E06840F0010332
:1008000094E8070098471034AC42F6D3FFF772FC27
:10081000185700083857000870B50724262501230B
:10082000224629464A2002F072F900232246294630
:10083000742002F06CF922465F24002329462046EA
:1008400002F065F9052500232A461621204602F00C
:100850005EF900232A463621204602F058F9BDE809
:10086000704002F0EBBBFEE7704770B50724262608
:10087000012322463146742002F049F95F25002306
:1008800022463146284602F042F9002322463146EC
:100890004A2002F03CF9052400232246162128466E
:1008A00002F035F9002322463621284602F02FF9BE
:1008B000BDE8704002F0C2BB10B5002490F82110D2
:1008C000022903D00421816301243DE001680A6804
:1008D00022F00E020A6001680A6822F001020A6032
:1008E0001A4A0168914201D1012121E0174A1432CC
:1008F000914201D110211BE0144A2832914201D1CA
:10090000891515E0114A3C32914201D189140FE05A
:100910000E4A5032914202D14FF4803108E00B4A26
:100920006432914202D14FF4801101E04FF08071A6
:10093000064A083A5160012180F82110002180F810
:100940002010416B01B18847204610BD08000240CD
:1009500070B5044600F008F90546601C02D0044852
:100960000078044400F000F9401BA042FAD370BDA7
:100970002C0000202DE9F84F00230024DFF8C0915F
:100980004FF00F0809F1040A0AF1040B0BF1040EF1
:100990000127A7400A683A40BA4275D1DFF8A4C1DE
:1009A0004D68A5EB0C0665452BD00DDC032D34D02E
:1009B00005DC35B3012D19D0022D2FD11BE0112DEF
:1009C00016D0122D2AD119E0B6F5881F19D006DCF1
:1009D000B6F5803F15D0B6F5801F1FD111E0B6F5F2
:1009E000001F0ED0B6F5041F18D10AE0CB6815E041
:1009F000CB681B1D12E0CB6808330FE0CB680C33CB
:100A00000CE08B6823B1012B04D00823476105E07B
:100A1000042303E00823076100E00023FF2A01D834
:100A2000054601E000F1040502D84FEA840603E020
:100A3000A4F108064FEA86062F6808FA06FC27EAA2
:100A40000C0703FA06F647EA06072F604D68ED002B
:100A500070D53D4DAE6946F00106AE61AD6905F059
:100A600001050095394D24F003067719BE68A507E6
:100A70002D0F08FA05FC26EA0C06DFF8D4C0604505
:100A800003D14FF0000C17E054E0DFF8C8C0604518
:100A900002D14FF0010C0FE0DFF8BCC0604502D17D
:100AA0004FF0020C08E0DFF8B4C0604502D14FF00F
:100AB000030C01E04FF0040C0CFA05FC4CEA060CA8
:100AC000C7F808C04D68ED0305D5D9F800501543A7
:100AD000C9F8005004E0D9F800509543C9F8005017
:100AE0004D68AD0305D5DAF800501543CAF800503B
:100AF00004E0DAF800509543CAF800504D68ED0262
:100B000005D5DBF800501543CBF8005004E0DBF8C6
:100B100000509543CBF800504D68AD0205D5DEF886
:100B200000501543CEF8005004E0DEF80050954325
:100B3000CEF80050641C102CFFF42AAFBDE8F88FEB
:100B400000040140000011100010024000000140AC
:100B500000080140000C0140001001400014014059
:100B6000C2684A40C2607047014880687047000010
:100B70002C00002070B50446002C04D094F83D00F1
:100B8000002510B106E0012070BD84F83C502046DD
:100B900000F00EFC242084F83D002068016821F05C
:100BA0000101016000F0A0FD424A6168914203D852
:100BB0004149884203D304E04049884201D20120E0
:100BC00070BD3F49B0FBF1F12368596063689342FF
:100BD00001D8491C07E04FF4967359434FF47A73D8
:100BE000B1FBF3F1491C236819626168914210D886
:100BF0004900401EB0FBF1F2521CC2F30B02042A62
:100C000001D2042022E0B0FBF1F0401CC0F30B0045
:100C10001CE0A268CAB301EBC10303EB0116431E3B
:100C2000B3FBF6F35B1C43F480431B0536D06AB379
:100C300001EBC10202EB0111401EB0FBF1F0401CC0
:100C4000C0F30B0040F4804040F400402168C861CC
:100C5000D4E90701084321680860D4E90310084378
:100C600021688860D4E9050108432168C8602068CC
:100C7000016841F0010101602564202084F83D00F5
:100C8000256384F83E50002070BD00E008E001EBD1
:100C90004106431EB3FBF6F35B1CC6E70120D5E714
:100CA00001EB4101401EB0FBF1F0401CC0F30B0012
:100CB000CAE70000A086010080841E0000093D00F4
:100CC00040420F002DE9FF4F81B004468B461F467E
:100CD0000126FFF749FF054694F83D00202803D080
:100CE000022005B0BDE8F08F192301224F492046AC
:100CF000009501F039FC08B10220F2E794F83C00BD
:100D0000012807D0012084F83C0020680168C90749
:100D100002D005E00220E4E7016841F00101016032
:100D20002068016821F400610160242084F83D00FE
:100D30004FF0000AC4F840A03D48E0624FF020099F
:100D40002068016841F4807101603B4600224FF049
:100D500001112046009501F007FC08B10320C0E70F
:100D600021680BF0FE000861FFF7FEFE05462068D3
:100D70004169C1F340014069C0F3802094F83D20EF
:100D80004FF0A00810E027B1FFF7EEFE401BB8427D
:100D900001D984F83D8020684169C1F34001406970
:100DA000C0F3802094F83D20014301D1A02AEAD16C
:100DB00084F83D9020684169C943890718D42168A7
:100DC000096841F400710160206841698069009000
:100DD0001923012215492046009501F0C5FB08B1F1
:100DE00003207EE784F83D9084F83CA0002078E75B
:100DF000016841F40071016021686FF4806048610E
:100E00001923012209492046009501F0ADFB08B1E4
:100E1000032066E730460399761C884290D384F815
:100E20003D9084F83CA001205BE700000200100028
:100E30000000FFFF2DE9F84F04468A469046994688
:100E40000A9FFFF791FE054694F83D00202802D046
:100E50000220BDE8F88F192301224C492046009555
:100E600001F082FB08B10220F3E794F83C0001286E
:100E700007D0012084F83C0020680168C90702D02F
:100E800005E00220E5E7016841F00101016020680A
:100E9000016821F400610160212084F83D001020E8
:100EA00084F83E0000262664C4F82480A4F82A9022
:100EB0003748E062608D20852B463A4651462046F1
:100EC00001F0CAF950B1206C042803D084F83C60CA
:100ED0000320BEE784F83C600120BAE7206841693E
:100EE0008069009041E02A463946204601F0F1FB36
:100EF00058B1206C042801D00320AAE720680168BB
:100F000041F4007101600120A3E7606A411C616245
:100F1000216800780861608D401E6085208D401E2C
:100F200080B2208522685169C94349070BD450B16A
:100F3000606A411C616200781061608D401E6085AE
:100F4000208D401E20852A463946204601F0E6FACB
:100F500058B1206C042801D003207AE7206801688A
:100F600041F400710160012073E7208D0028BAD19F
:100F70001F3454F81F0C016841F4007101602020F7
:100F8000A077E6776677002063E700000200100094
:100F90000000FFFF2DE9FF4F83B00446DDE9119803
:100FA0008A469346109FFFF7DFFD054694F83D0003
:100FB000202803D0022007B0BDE8F08F19230122BA
:100FC000A0492046009501F0CFFA08B10220F2E7CF
:100FD00094F83C00012807D0012084F83C002068E8
:100FE0000168C90702D005E00220E4E7016841F08A
:100FF000010101602068016821F400610160222084
:1010000084F83D00402084F83E0000262664676294
:10101000A4F82A908C48E062608D2085CDE9008597
:101020005A4651462046069B01F072F950B1206C99
:10103000042803D084F83C600320BCE784F83C60BB
:101040000120B8E7208D70B1012815D0022823D0E7
:101050002068016841F4806101602068416980690D
:1010600002907A4FE3E0206841698169029101684A
:1010700041F400710160F4E72068016821F48061A7
:10108000016072B62068416981690291016841F48A
:101090000071016062B6E4E72068016841F4006114
:1010A000016072B62068416981690291016821F48A
:1010B0008061016062B6D4E703286FD801280BD0A5
:1010C000022823D04346002239462046009501F0ED
:1010D0004BFAE8B303206EE72A464146204601F06A
:1010E000C7FA30B1206C202801D0012063E703202B
:1010F00061E720680169606A421C62620170208DAC
:10110000401E2085608D401E608590E04346002291
:1011100039462046009501F027FA08B103204AE736
:1011200072B62068016841F40071016020680169AD
:10113000606A421C62620170208D401E2085608DB5
:10114000401E608562B620680169606A421C00E04A
:1011500008E062620170208D401E2085608D401E77
:10116000608564E02068016821F48061016072B6E6
:1011700020680169606A421C62620170208D401E15
:101180002085608D401E60854346002239462046FA
:10119000009501F0E9F910B103200CE71EE020688A
:1011A000016841F40071016020680169606A421CB5
:1011B00062620170208D401E2085608D401E60851A
:1011C00062B620680169606A421C62620170208D0B
:1011D000401E2085608D401E608528E02A464146DD
:1011E000204601F045FA30B1206C202801D00120C2
:1011F000E1E60320DFE620680169606A421C626262
:101200000170208D401E2085608D401E6085206805
:101210004169C94349070AD40169606A421C626294
:101220000170208D401E2085608D401E6085208DC0
:1012300000287FF441AF20203C346070A6702670F7
:101240000020B8E6020010000000FFFF04000100CB
:101250002DE9FF4F83B00446DDE910898A469346A5
:10126000129FFFF781FC054694F83D00202803D02B
:10127000022007B0BDE8F08F192301224A49204619
:10128000009501F071F908B10220F2E794F83C00F2
:10129000012807D0012084F83C0020680168C907B4
:1012A00002D005E00220E4E7016841F0010101609D
:1012B0002068016821F400610160212084F83D006C
:1012C000402084F83E0000262664C4F82480A4F858
:1012D0002A903648E062608D2085CDE900755A4637
:1012E00051462046069B01F0B5F8D0B3206C042887
:1012F00003D084F83C600320BBE784F83C60012005
:10130000B7E72A463946204601F0E3F958B1206C88
:10131000042801D00320ACE72068016841F4007183
:1013200001600120A5E7606A411C616221680078C4
:101330000861208D401E80B22085618D491E618527
:1013400023685969C94349070BD450B1606A411CED
:10135000616200781861208D401E2085608D401EDE
:101360006085208D0028CCD12A463946204601F0E0
:10137000D5F858B1206C042801D0032079E7206803
:10138000016841F400710160012072E71F3454F8D4
:101390001F0C016841F4007101602020A077E677FE
:1013A0006677002065E70000020010000000FFFFE4
:1013B00000B585B000680C49884212D1C020019068
:1013C000122002900320049001A90848FFF7D2FAE6
:1013D0000748C16941F40011C161C06900F40010FF
:1013E000009005B000BD000000540040000C01401A
:1013F0000010024002488168027811448160704701
:101400002C00002010B50748016841F01001016070
:10141000032000F09FF8002000F006F800F026F806
:10142000002010BD0020024070B504460D4D4FF461
:101430007A712878B1FBF0F00B490968B1FBF0F044
:1014400000F067FB08B1012070BD102C07D200220C
:101450002146501E00F05EF86C60002070BD012037
:1014600070BD00002C0000203800002008B5214885
:10147000816941F001018161816901F001010091FF
:10148000C16941F08051C161C06900F08050009095
:10149000032000F05FF8002211466FF00B0000F00F
:1014A00039F8002211466FF00A0000F033F80022EC
:1014B00011466FF0090000F02DF800221146501F70
:1014C00000F028F800221146101F00F023F8002237
:1014D0001146901E00F01EF800221146501E00F02A
:1014E00019F80549486820F0E06040F00070486055
:1014F00008BD0000001002400000014000F01F0283
:10150000012191404009800000F1E020C0F8001165
:1015100070470000F0B40D460D4B1B68C3F3022367
:10152000C3F10704042C00D90424191D072901D292
:10153000002300E0DB1E012606FA04F1491E2940C3
:1015400099409E40761E16403143F0BC01F008BA27
:101550000CED00E000F00701054A10684FF6FF03AC
:10156000184040EA0120034908431060704700001A
:101570000CED00E00000FA052DE9F04704460E46A8
:10158000DFF84881D8F8000000F00700B0420FD221
:10159000D8F8000020F007003043C8F80000D8F861
:1015A000000000F00700B04202D00120BDE8F08743
:1015B0002078474F800705D57868A16820F0F000B3
:1015C000084378602078C00748D06068012806D0BA
:1015D000022809D0396889070BD40120E6E7396869
:1015E000890306D40120E1E73968890101D401208B
:1015F000DCE7796821F0030101437960FFF7B4FA71
:101600000546606841F28839012809D0022814D0C3
:1016100020E0FFF7A9FA401B484501D90320C5E7A0
:101620007868C0F381000128F3D117E0FFF79CFA36
:10163000401B484501D90320B8E77868C0F3810012
:101640000228F3D10AE0FFF78FFA401B484501D981
:101650000320ABE7786810F00C0FF4D1D8F8000045
:1016600000F00700B0420ED9D8F8000020F00700C3
:101670003043C8F80000D8F8000000F00700B0427E
:1016800001D0012092E72078400705D57868E1680D
:1016900020F4E060084378602078000706D5786879
:1016A000216920F4605040EAC100786000F03CF805
:1016B0007968084AC1F30311515CC84006490860C3
:1016C0000020FFF7B1FE002070E70000002002407C
:1016D00000100240D655000838000020014800687C
:1016E000704700003800002000B5FFF7F7FF0449FD
:1016F0004968044AC1F30221515CC84000BD0000A2
:1017000000100240E655000800B5FFF7E7FF044966
:101710004968044AC1F3C221515CC84000BD0000C1
:1017200000100240E655000885B014A090E80E00B5
:10173000C068CDE902230191049014A000680090D4
:10174000134B5968134801F00C02042A10D0082AE0
:101750000ED101A8C1F38342805CC9030AD5596840
:10176000C1F340411DF801100A4A5043B0FBF1F0AB
:1017700005B0704708494843FAE700000203040532
:10178000060708090A0B0C0D0E0F101001020000CD
:101790000010024000127A0000093D002DE9F84FC8
:1017A0000446D04D2078C0075BD06868C0F3810044
:1017B000012807D06868C0F3810002280AD1686850
:1017C000C00307D5286880034BD5606878BB01202B
:1017D000BDE8F88F6068B0F5803F11D0A8B1B0F5D2
:1017E000A02F1BD0286820F480302860286820F4BF
:1017F00080202860606830B3FFF7B6F906461EE027
:10180000286840F480302860F4E7286820F48030AD
:101810002860286820F480202860EBE7286840F4DE
:1018200080202860286840F480302860E2E718E0D3
:10183000FFF79AF9801B642801D90320C8E72868BC
:101840008003F5D50DE0FFF78FF9064606E0FFF7B8
:101850008BF9801B642801D90320B9E7286880032D
:10186000F5D42078DFF8808280074FF0010A4FF02E
:10187000000945D5686810F00C0F07D06868C0F300
:101880008100022812D16868C0030FD4286880073D
:1018900004D52069012801D0012099E728686169F1
:1018A00020F0F80040EAC100286029E02069B8B1C2
:1018B000C8F800A0FFF758F9064606E0FFF754F90C
:1018C000801B022801D9032082E728688007F5D50C
:1018D0002868616920F0F80040EAC10028600FE044
:1018E000C8F80090FFF740F9064606E0FFF73CF91C
:1018F000801B022801D903206AE728688007F5D4F5
:101900002078000726D57948A16999B1C0F800A0D0
:10191000FFF72AF9064606E0FFF726F9801B0228A2
:1019200001D9032054E7686A8007F5D5012001F04A
:1019300029F80FE0C0F80090FFF716F9064606E018
:10194000FFF712F9801B022801D9032040E7686ADB
:101950008007F5D42078400773D50026E869C000D9
:1019600008D4E86940F08050E861E86900F08050F0
:1019700000900126DFF878B1DBF80000C00514D430
:10198000DBF8000040F48070CBF80000FFF7ECF8C3
:10199000074606E0FFF7E8F8C01B642801D90320DA
:1019A00016E7DBF80000C005F4D5E068012812D086
:1019B000B0B105281DD0286A20F001002862286AED
:1019C00020F004002862E06841F2883B28B3FFF76A
:1019D000CBF807461DE0286A40F001002862F2E7D4
:1019E000286A20F001002862286A20F0040028629A
:1019F000E9E7286A40F004002862286A40F0010004
:101A00002862E0E7FFF7B0F8C01B584501D9032072
:101A1000DEE6286A8007F5D50DE0FFF7A5F8074652
:101A200006E0FFF7A1F8C01B584501D90320CFE617
:101A3000286A8007F5D4012E03D1E86920F0805090
:101A4000E861E069A0B36968C1F38101022947D068
:101A5000022805D0C8F86090FFF786F804463AE0FF
:101A6000C8F86090FFF780F8064606E0FFF77CF8BC
:101A7000801B022801D90320AAE628688001F5D43A
:101A8000206AB0F5803F05D16868A16820F4003075
:101A900008436860D4E908010843696821F47411B7
:101AA00008436860C8F860A0FFF75EF8044607E0E6
:101AB00014E0FFF759F8001B022801D9032087E63C
:101AC00028688001F5D509E0FFF74EF8001B0228D1
:101AD00001D903207CE628688001F5D4002077E650
:101AE000012075E60010024000004242800442429C
:101AF000007000404FF0E021042804D0086920F075
:101B0000040008617047086940F0040008617047EC
:101B1000704710B5401EB0F1807F01D3012010BD89
:101B20004FF0E02460610F21601700F019FF0020E2
:101B3000A06107202061002010BD10B5FFF7E8FF6D
:101B400010BD7047704730B590F83C20012A20D076
:101B5000012380F83C30022280F83D20026854685E
:101B600024F070045460026854680D682C4354607B
:101B70000268946824F0800494600268946849685C
:101B80000C43946080F83D30002180F83C10002028
:101B900030BD022030BD10B50446002C03D094F8AF
:101BA0003D0010B107E0012010BD002084F83C008A
:101BB000204600F00DF8022084F83D00211D206829
:101BC00001F00CFB012084F83D00002010BD000056
:101BD00008B500680B49884212D10B48C16941F031
:101BE0000201C161C06900F00200009000221146AC
:101BF0001D20FFF78FFCBDE808401D20FFF77EBCCD
:101C000008BD00000004004000100240022180F8DE
:101C10003D1001680A6842F001020A60012180F863
:101C20003D10002070470168CA6842F00102CA6096
:101C30000068016841F00101016000207047022145
:101C400080F83D1001680A6A41F211131A4207D167
:101C50000A6A9B101A4203D10A6822F001020A6044
:101C6000012180F83D100020704770B5044694F8BB
:101C70003C00012817D0012584F83C50022084F84C
:101C80003D002068826822F0770222F47F42826061
:101C9000086850283AD00DDC20285FD005DCA0B3BE
:101CA000102864D155E0022070BD30285BD0402858
:101CB0005DD13FE0602833D070280CD0B0F5805F54
:101CC00003D0B0F5005F52D113E02068816821F0A5
:101CD000070181604BE0CB68D1E90121206801F068
:101CE000B3FA2068816821F0770141F077018160C3
:101CF0003DE0CB68D1E90121206801F0A5FA206818
:101D0000816841F48041816031E01DE0CA68496822
:101D1000206801F0ABFA5021206801F09FFA26E01C
:101D2000CA684968206801F0B2FA6021206801F0B1
:101D300095FA1CE0CA684968206801F097FA4021CA
:101D4000206801F08BFA12E00021206801F086FA89
:101D50000DE01021206801F081FA08E020212068C0
:101D600001F07CFA03E03021206801F077FA3C347E
:101D700065700020207070BD704770B50446206803
:101D800001694FF00005C943890716D4C168C943EA
:101D9000890712D4E91E016101202077206880693B
:101DA000800703D02046FFF7E7FF05E0204600F05C
:101DB0009BF8204600F099F8257720680169C9430F
:101DC000490718D4C168C943490714D46FF0040106
:101DD0000161022020772068806910F4407F03D0E1
:101DE0002046FFF7C9FF05E0204600F07DF82046B9
:101DF00000F07BF8257720680169C943090717D4EB
:101E0000C168C943090713D46FF0080101610420B8
:101E100020772068C069800703D02046FFF7ACFF19
:101E200005E0204600F060F8204600F05EF82577D7
:101E300020680169C943C90618D4C168C943C906E5
:101E400014D46FF010010161082020772068C06968
:101E500010F4407F03D02046FFF78EFF05E02046B8
:101E600000F042F8204600F040F82577206801692C
:101E7000C943C90708D1C168C943C90704D1891E2C
:101E80000161204600F032F820680169C943090663
:101E900009D4C168C943090605D46FF08001016106
:101EA0002046FFF74EFE20680169C943490609D460
:101EB000C168C943490605D46FF04001016120465D
:101EC00000F015F820680169C94389060BD4C16880
:101ED000C943890607D46FF0200101612046BDE89F
:101EE0007040FFF72FBE70BD704770477047704756
:101EF0007047000070B5044622681068D1685269C6
:101F000000F00F03002B08D1850606D58D0604D5F9
:101F10002046BDE8704001F0EFB9002B5ED002F022
:101F2000010301F490752B4358D0C30705D0CB05AE
:101F300003D5E36B43F00103E363430705D5D30700
:101F400003D0E36B43F00203E363830705D5D307B4
:101F500003D0E36B43F00403E363030705D5D20723
:101F600003D0E26B42F00802E263E26B002A2AD05F
:101F7000800604D5880602D5204601F0BDF9206808
:101F80004069C0F38010E16B090700D400B320461C
:101F900001F097F920684169490615D5416921F09A
:101FA00040014161606B58B115494163606BFEF7B8
:101FB00083FC002807D0606B416BBDE87040084788
:101FC0002046FFF795FF70BD2046FFF791FF70BDDB
:101FD0002046FFF78DFF0020E06370BD020606D5A6
:101FE0000A0604D52046BDE8704001F0A1BA4006BB
:101FF000F3D54806F1D52046BDE8704001F06FB931
:10200000B332000870B50446002C04D094F83900AF
:10201000002510B106E0012070BD84F8385020463C
:1020200000F022F8242084F839002068C16821F4E7
:102030000051C160204601F0ADF92068016921F42A
:10204000904101612068416921F02A0141612068C5
:10205000C16841F40051C160E563202084F8390073
:1020600084F83A00002070BDF0B585B00168354FA6
:1020700002200024344A0323344D4602B94220D1C1
:10208000916941F480419161916901F4804100912D
:10209000010201910290049301A92846FEF76AFC0F
:1020A00001960294039401A92846FEF763FC0022DE
:1020B00011462520FFF72EFA2520FFF71FFA05B05D
:1020C000F0BD234FB94220D1D16941F40031D16133
:1020D000D16901F40031009104210191029004932F
:1020E00001A92846FEF746FC0821019102940394B9
:1020F00001A92846FEF73EFC002211462620FFF7E4
:1021000009FA2620FFF7FAF9D9E7124DA942D6D1EC
:10211000D16941F48021D161D16901F4802100911C
:102120000196029004930C4D01A92846FEF722FC6B
:10213000E91401910294039401A92846FEF71AFCC0
:10214000BDE70000003801400010024000080140D7
:102150000044004000480040000C014070472DE959
:10216000F84304460D4691461E4694F8390020284F
:1021700002D00220BDE8F883B5B1B9F1000F13D049
:1021800094F83800012811D0012084F83800002785
:10219000E763212084F83900FEF7E6FC8046A4F8C6
:1021A0002490A4F826902DE00120E3E70220E1E747
:1021B000E08C401EE084A068B0F5805F09D0434603
:1021C000002280212046009601F0E5F9B0B10320FD
:1021D000D0E74346002280212046009601F0DBF93B
:1021E00008B10320C6E728882168C0F308004860CA
:1021F000206908B16D1C05E0AD1C03E0216815F8ED
:10220000010B4860E08C0028D2D1434600224021D7
:102210002046009601F0BFF908B10320AAE720206C
:102220003834607027700020A4E77047FEE701682B
:102230004A69D24352050CD46FF480624A6104218A
:1022400030300161002101602022427301730120BE
:102250007047002070470000F8B504460D46174649
:102260001E46E06A042808D0012806D010F5803FF9
:1022700003D0206B122806D00AE02068016841F4E0
:102280008071016004E02068016841F480710160A0
:102290003B4600224FF001112046009600F064F901
:1022A00008B10320F8BD2069B0F5804F12D005F4C5
:1022B0004070F02141EAD0102168086133463A4667
:1022C0001249204600F08AF958B1206C042806D043
:1022D0000320F8BD216805F0FE00086104E001203C
:1022E000F8BD2168E8B20861084933463A46891FBB
:1022F000204600F073F930B1206C042801D003208F
:10230000F8BD0120F8BD0020F8BD00000800010064
:102310002DE9F84F0446DDE90AB60F4690461D4602
:102320002068016841F4806101602068016841F41F
:10233000807101604FF001195B460022494620463A
:10234000009600F011F910B10320BDE8F88F216864
:1023500007F0FE000861DFF8F8A033465A46514600
:10236000204600F03BF930B1206C042801D0032056
:10237000EBE70120E9E72068416980690090324677
:102380005946204600F0A5F958B1206C042801D028
:102390000320DAE72068016841F400710160012040
:1023A000D3E7284608F0FF0501280ED021684FEA40
:1023B0001820086132465946204600F08AF970B16B
:1023C000206C042804D00320BFE72068056108E0E2
:1023D0002068016841F4007101600120B5E72068C0
:1023E000056132465946204600F073F958B1206C19
:1023F000042801D00320A8E72068016841F4007197
:1024000001600120A1E72068016841F4807101604A
:102410005B46002249462046009600F0A5F808B128
:10242000032092E72168F8B240F0010008613346CA
:102430005A465146204600F0D1F830B1206C0428AD
:1024400001D0032081E701207FE700207DE7000025
:10245000020001002DE9F8430446DDE908970D4626
:10246000164698462068016841F4807101604B4629
:1024700000224FF001112046009700F075F810B1CE
:102480000320BDE8F883216805F0FE0008613B46A3
:102490004A462149204600F0A1F830B1206C0428BA
:1024A00001D00320EDE70120EBE720684169806956
:1024B00000903A464946204600F00BF958B1206C8E
:1024C000042801D00320DCE72068016841F4007192
:1024D00001600120D5E7F5B2B8F1010F0DD02168F8
:1024E000300A08613A464946204600F0F2F870B1D9
:1024F000206C042804D00320C3E72068056108E0AD
:102500002068016841F4007101600120B9E720688A
:1025100005610020B5E700000200010070B5044627
:102520000D46164619E02046FFF781FE08B101204E
:1025300070BD681C11D025B1FEF716FB801BA842A8
:102540000BD93034206940F0200020610020206049
:10255000202161732073032070BD20684069C0434F
:102560004007E0D4002070BD2DE9F0470546DDF8B6
:1025700020A00F4691461E46C7F3074812E0701C84
:1025800010D02EB1FEF7F0FAA0EB0A00B04209D944
:10259000002045F8300F20216973A87328730320A9
:1025A000BDE8F087B8F1010F0BD02868806927EAF1
:1025B00000000004000C0FD000244C45DFD00020A8
:1025C000EEE72868406927EA00000004000C01D00B
:1025D0000024F2E70124F0E70124EEE72DE9F047BB
:1025E00004460E46154698464FF000094FF0200A63
:1025F000C6F3074729E020684069C043400513D46B
:102600002068016841F40071016021686FF4806006
:10261000486104202064C4F8309084F83DA084F818
:102620003C900120BDE8F087681C0ED02DB1FEF76C
:102630009BFAA0EB0800A84207D9C4F8309084F8B0
:102640003DA084F83C900320ECE7012F08D02068DF
:10265000806926EA00000004000CCCD10020E1E7EC
:102660002068406926EA00000004000CF6D0C2E7AA
:102670002DE9F04104460D46164600274FF020088C
:1026800020E04069C043C0060CD421686FF0100000
:1026900048612764276384F83D8084F83C700120FA
:1026A000BDE8F08125B1FEF75FFA801BA84209D989
:1026B000206C40F02000206484F83D8084F83C7059
:1026C0000320EDE720684169C9434906D9D40020B9
:1026D000E6E770B504460D46164619E02046FFF7BA
:1026E000A6FD08B1012070BD681C11D025B1FEF710
:1026F0003BFA801BA8420BD93034206940F02000FF
:10270000206100202060202161732073032070BDB0
:1027100020684069C0430006E0D4002070BD2DE968
:10272000F04105275F2601233A461621304600F086
:10273000EEF907242625002322462946304600F0DC
:10274000E6F9002322462946742000F0E0F9002330
:10275000224629464A2000F0DAF900233A4636217B
:10276000304600F0D4F9BDE8F04100F067BC00004D
:1027700008B50D48816941F020018161816901F04E
:1027800020010091816941F004018161816901F0BA
:1027900004010091816941F008018161806900F0C4
:1027A0000800009008BD00000010024010B50D4860
:1027B0000B4901600C49416000218160C1604FF408
:1027C0008042026141618161C1610162FEF7D2F91B
:1027D000002803D0FC2105A000F01DFF10BD000063
:1027E0000054004048040020801A06002E2E2F536B
:1027F00072632F6D61696E2E6300000010B586B0A4
:1028000018481749016048F69F41416000248460E0
:102810003221C16004618461FFF7BDF920B14FF43A
:10282000887111A000F0F7FE4FF48050029002A9C9
:102830000C48FFF71AFA20B14FF48B710AA000F090
:10284000EAFE0094019469460648FFF77CF90028E7
:1028500004D040F21D1104A000F0DDFE06B010BD52
:10286000000400409C0400202E2E2F5372632F6D15
:1028700061696E2E6300000010B50D480B490160C0
:102880004FF41651416000218160C16001610C224A
:1028900042618161C161FFF7B5FB002804D04FF4AC
:1028A000987104A000F0B7FE10BD00000038014090
:1028B000DC0400202E2E2F5372632F6D61696E2E63
:1028C0006300000010B50D480B4901604FF4E13181
:1028D000416000218160C16001610C22426181611F
:1028E000C161FFF78FFB002804D040F2431104A020
:1028F00000F091FE10BD0000004400401C050020C7
:102900002E2E2F5372632F6D61696E2E63000000AF
:1029100010B50D480B4901604FF4E13141600021D1
:102920008160C16001610C2242618161C161FFF778
:1029300069FB002804D04FF4AB7104A000F06BFEDB
:1029400010BD0000004800405C0500202E2E2F53D3
:1029500072632F6D61696E2E63000000FEE77047A1
:102960000907090E002806DA00F00F0000F1E02048
:1029700080F8141D704700F1E02080F800147047C3
:102980007047000008B507494FF4FA520968B1FBD7
:10299000F2F14143009100BF0098411E0091FAD22C
:1029A00008BD0000380000202DE9F04105275F2414
:1029B00001233A463621204600F0A9F807252626AD
:1029C00000232A463146742000F0A1F800233A463D
:1029D0001621204600F09BF800232A463146204667
:1029E00000F095F800232A4631464A2000F08FF87F
:1029F000BDE8F04100F022BB2DE9FF4F84B0064650
:102A00000F461446C4F101000FFA80F84FF0010997
:102A1000C4EBC43040000FFA80FA0025381981B2A7
:102A2000B0B2079A00F082F9381B81B2B0B2079AAF
:102A300000F07CF93019B9B280B2079A00F076F94B
:102A4000301BB9B280B2079A00F070F95AE0B8F1C1
:102A5000000F09DB641E24B20AF1020A0FFA8AFA97
:102A600008EB0A000FFA80F86D1C2DB209F102097B
:102A70000FFA89F908EB09000FFA80F8701907EBD3
:102A8000040B03901FFA8BF180B2079A00F04EF905
:102A9000701B02901FFA8BF180B2079A00F046F982
:102AA0000398A7EB040B1FFA8BF180B2079A00F092
:102AB0003DF902981FFA8BF180B2079A00F036F9BF
:102AC000301907EB050B01901FFA8BF180B2079AC2
:102AD00000F02CF9301B00901FFA8BF180B2079A9E
:102AE00000F024F90198A7EB050B1FFA8BF180B2D7
:102AF000079A00F01BF900981FFA8BF180B2079A31
:102B000000F014F9A542A2DB08B0BDE8F08F2DE972
:102B1000F04F87B007460E4614469946C4F10100AF
:102B20000FFA80F84FF0010AC4EBC43040000FFAEE
:102B300080FB0025301981B2B8B24A4600F0F6F8A1
:102B4000301B81B2B8B24A4600F0F0F8381906904E
:102B5000B1B280B24A4600F0E9F8381B0590B1B234
:102B600080B24A4600F0E2F80698CDF8009082B2B2
:102B70000598B3B2B1B280B200F04FF848E0B8F1B6
:102B8000000F09DB641E24B20BF1020B0FFA8BFB62
:102B900008EB0B000FFA80F86D1C2DB20AF1020A47
:102BA0000FFA8AFA08EB0A000FFA80F8791930193F
:102BB0008AB2049183B281B2781B0390CDF8009061
:102BC00080B200F02AF8311B8BB203981FFA81FC07
:102BD000049982B288B2CDF80090614600F01DF8E9
:102BE000381B82B20290711938198BB2019089B2E8
:102BF000CDF8009080B200F010F80298711B82B2FC
:102C000001988BB2CDF8009089B280B200F005F83F
:102C1000A542B4DB07B0BDE8F08F2DE9FC4F0546B7
:102C20000C4616461F46802D00D37F25802E00D3EC
:102C30007F26402C00D33F24402F00D33F27B542AE
:102C400001D2701B00E0A81B0FFA80FABC4201D22F
:102C5000381B00E0E01B0FFA80F94FF0FF3BB54254
:102C600001D2012000E058460090BC4201D24FF052
:102C7000010BCA4501DD504601E0C9F1000000EB3F
:102C8000D07040100FFA80F8BAF1000F06D0B9F1F9
:102C9000000F18D0CAF1000001903EE0A74202D216
:102CA0003846274684B2AE4200D2B5B224B206E01E
:102CB000A1B228460B9A00F039F8641C24B2BC4239
:102CC000F6DDBDE8FC8FA74200D2BCB2AE4202D214
:102CD00030462E4685B22DB206E0A8B221460B9AA8
:102CE00000F024F86D1C2DB2B542F6DDE9E7BC42D8
:102CF000E7D040460199884206DDA8EB09010FFAAA
:102D000081F8009929448DB2484506DA08EB0A009B
:102D10000FFA80F804EB0B0084B2214628460B9A88
:102D200000F004F8B542E4D1E1E7000030B58028B6
:102D300013D2402911D20C4B1B790BB172B1002276
:102D4000012301F00704A340C908084D00EBC1109E
:102D5000012A05D0295C9943295430BD0122EFE7AF
:102D6000295C1943295430BD080000204800002088
:102D70002DE9F8410446079E0D469846802C31D235
:102D8000402D2FD2A018802802D3C4F1800082B237
:102D900005EB0800402803D3C5F140001FFA80F876
:102DA000A718BAB22B46294620460096FFF735FFF2
:102DB000A8441FFA88F3BAB21FFA88F12046009699
:102DC000FFF72BFF1FFA88F322462946204600967C
:102DD000FFF723FF1FFA88F3BAB2B8B2294600966C
:102DE000FFF71BFFBDE8F881002805D0FF224FF454
:102DF00080610248FDF7A6B90022F8E748000020EC
:102E0000014A1080518070470800002010B501F081
:102E100095FF44F62063012278215248FDF752FFC6
:102E200008B1002010BD40F6C410401E0028FCD19F
:102E3000AE220021782001F089FF20220021782095
:102E400001F084FF10220021782001F07FFFB022E2
:102E50000021782001F07AFFC8220021782001F0BB
:102E600075FF00221146782001F070FF102200212A
:102E7000782001F06BFF40220021782001F066FFEE
:102E800081220021782001F061FFFF2200217820BB
:102E900001F05CFFA1220021782001F057FFA6225B
:102EA0000021782001F052FFA8220021782001F0B3
:102EB0004DFF3F220021782001F048FFA42200218D
:102EC000782001F043FFD3220021782001F03EFF5B
:102ED00000221146782001F039FFD5220021782008
:102EE00001F034FFF0220021782001F02FFFD922D9
:102EF0000021782001F02AFF22220021782001F011
:102F000025FFDA220021782001F020FF1222002183
:102F1000782001F01BFFDB220021782001F016FF52
:102F200020220021782001F011FF8D22002178203D
:102F300001F00CFF14220021782001F007FFAF22DE
:102F40000021782001F002FF0020FFF74DFF00F084
:102F500075F805480021018041800121417101205F
:102F600010BD000048040020080000202DE9F047B3
:102F700082460E469146DFF898803178B8F8000016
:102F80000844802805D2B8F8020071780844402827
:102F900002D30020BDE8F08700252BE0AAF1200134
:102FA00001FB0050726832F8107000241EE007FA2E
:102FB00004F000040BD5B8F802004A46284481B258
:102FC000B8F80000204480B2FFF7B0FE0DE0B9F180
:102FD000000F1AD00022B8F80200284481B2B8F8D5
:102FE0000000204480B2FFF7A1FE641C3078A042AC
:102FF000DDD86D1C7078A842D0D8B8F800003178C0
:103000000844A8F800005046C4E70122E3E70000A6
:103010000800002070B504460D46164609E0324609
:103020002946FFF7A3FF2178884201D0207870BDA0
:10303000641C20780028F2D1207870BD70B500247F
:103040000E4D04F1B000C2B20021782001F07EFEE6
:1030500000221146782001F079FE1022002178200C
:1030600001F074FE05EBC41280234021782001F0AA
:103070007DFE641CE4B2082CE3D370BD4800002040
:1030800070B5072426265F250123224631462846AF
:10309000FFF73DFD0023224631467420FFF737FD40
:1030A0000023224631464A20FFF731FD0524002344
:1030B000224616212846FFF72AFD00232246362104
:1030C0002846FFF724FDBDE87040FFF7B7BF704703
:1030D00010B5FEF78FF9BDE81040FEF72EBD0000D9
:1030E00030B58FB0012105910804069000240794A3
:1030F000099102250C950D904FF4E0100E9005A853
:10310000FEF74CFB18B1D02112A000F084FA0F207A
:103110000090019502944FF4806003900494022182
:103120006846FEF729FA18B1DE210AA000F073FA0A
:10313000FEF7D4FA4FF47A71B0FBF1F0FEF7E9FC38
:103140000420FEF7D7FC00221146501EFEF7E2F9DC
:103150000FB030BD2E2E2F5372632F6D61696E2E0E
:10316000630000000D48016841F001010160416801
:103170000B4A1140416001680A4A11400160016830
:1031800021F480210160416821F4FE0141604FF487
:103190001F0181600449C0030860704700100240AD
:1031A0000000FFF8FFFFF6FE08ED00E070B50948EB
:1031B000FEF7E3FD084D4FF4005421462846FDF785
:1031C000CFFC00F0E5FD21462846BDE87040FDF744
:1031D000C7BC00009C04002000100140F0B502684C
:1031E000164C174D174E4FF08047A04205D0B842FD
:1031F00003D0A84201D0B04203D122F070034A6844
:103200001A43A04205D0B84203D0A84201D0B04230
:1032100003D122F44073CA681A4322F080024B693A
:10322000134303608A68C2620A688262A04201D1C5
:103230000969016301214161F0BD0000002C0140DA
:10324000000400400008004010B5846824F47F4466
:1032500042EA03220A432243826010BD826822F0C0
:1032600070020A4342F007018160704710B5036A9B
:10327000046A24F001040462846924F0F00444EA3E
:10328000021423F00A020A438461026210BD10B5E1
:10329000036A23F0100303628469036A24F4704410
:1032A00044EA023223F0A00343EA01118261016281
:1032B00010BD10B5406A0021C185C184FEF718FE1B
:1032C00010BD0168CA6822F49072CA6001684A6938
:1032D00022F001024A61202180F83A10704710B5AF
:1032E0000168CA6822F04002CA60202180F83910C3
:1032F000FEF79BFF002010BD10B590F83A10222970
:1033000001D0022010BD8168B1F5805F11D0016944
:1033100019B30168496801F07F03816A4A1C82621F
:103320000B70C18D491E0904090CC1851CD00020F9
:1033300010BD816A02693AB102685268D2B20A804D
:10334000816A491C8162ECE702685268C2F3080294
:103350000A80816A891C8162E3E701684A68816AA0
:103360004B1C83620A70DCE70168CA6822F0200205
:10337000CA600168CA6822F48072CA6001684A693A
:1033800022F001024A61202180F83A10FEF7E6FEA1
:10339000002010BD2DE9F041044620680169E26873
:1033A00021F4405111430161A16820690143606922
:1033B00001432068C26841F20C639A430A43C26029
:1033C00020684169A26921F4407111434161574964
:1033D000206864253226884254D1FEF795F900EB27
:1033E000C00101EB001061688900B0FBF1F7FEF746
:1033F0008BF900EBC00101EB001061688900B0FBA4
:10340000F1F0B0FBF5F06FF01801484307EB8000D6
:1034100006EB0010B0FBF5F000F0F007FEF774F9D2
:1034200000EBC00101EB001061688900B0FBF1F016
:10343000B0FBF5F007EB0017FEF766F900EBC001F3
:1034400001EB001061688900B0FBF1F8FEF75CF950
:1034500000EBC00101EB001061688900B0FBF1F0E6
:10346000B0FBF5F06FF01801484308EB800006EB65
:103470000010B0FBF5F0216800F00F0038448860C0
:10348000BDE8F081FEF730F900EBC00101EB001060
:1034900061688900B0FBF1F7FEF726F900EBC00187
:1034A00001EB001061688900B0FBF1F0B0FBF5F0B2
:1034B0006FF01801484307EB800006EB0010B0FBEB
:1034C000F5F000F0F007FEF70FF900EBC00101EB9B
:1034D000001061688900B0FBF1F0B0FBF5F007EB7C
:1034E0000017FEF701F900EBC00101EB0010616865
:1034F0008900B0FBF1F8FEF7F7F800EBC00101EB33
:10350000001061688900B0FBF1F0B0FBF5F06FF0DE
:103510001801484308EB800006EB0010B0FBF5F003
:10352000216800F00F0038448860A9E700380140A6
:1035300090F83910212901D0022070478168B1F537
:10354000805F0CD0016A4A1C0262026809785160EF
:10355000C18C491E0904090CC18410D019E0016A0C
:1035600002680988C1F308015160016919B1016A53
:10357000491C0162ECE7016A891C0162E8E7016805
:10358000CA6822F08002CA600068C16841F0400148
:10359000C160002070472DE9F04104460E461746F1
:1035A0009846069D1DE0681C1BD02DB1FDF7DCFA86
:1035B000A0EB0800A84214D92068C16821F4D0719A
:1035C000C1602068416921F001014161202084F837
:1035D000390084F83A00002084F838000320BDE860
:1035E000F0812068006836EA000004D00020B8426C
:1035F000D9D00020F3E70120F9E700000148FEF7E9
:1036000079BC0000DC0400200148FEF773BC000018
:103610001C050020FEE7FEE70FB4084B10B504A917
:1036200002AA039800F0AEF8044602A9002000F0B8
:1036300009FA204610BC5DF814FB0000453A00086A
:10364000490050EAC12018BF04204A0D18BF40F0BD
:10365000010040F2FF72B2EB515F08BF40F0020080
:10366000012808BF052070472DE9F0414F1E00EBEF
:10367000C7010446D1E9000115461E4637F006028F
:103680000DD02A463346FCF722FE7F1E04EBC7030B
:10369000D3E90023FCF774FD37F00602F1D1022FC5
:1036A00025D0042F13D0062F18BFBDE8F0812A467D
:1036B0003346FCF70CFED4E90A23FCF761FD2A46E9
:1036C0003346FCF704FED4E90823FCF759FD2A46EB
:1036D0003346FCF7FCFDD4E90623FCF751FD2A46EE
:1036E0003346FCF7F4FDD4E90423FCF749FD2A46F0
:1036F0003346FCF7ECFDD4E90223FCF741FD2A46F2
:103700003346FCF7E4FDD4E90023BDE8F041FCF7C3
:1037100037BD00000022134610460149FCF749BEA0
:103720000000F03F0122FCF7D4BFFCF729BD0022C6
:10373000134610461146FCF73CBE40F20132002011
:103740004FF0E041FCF7C5BF024A00201107FCF72B
:10375000C0BF000001FDFFFF02E008C8121F08C142
:10376000002AFAD170477047002001E001C1121F02
:10377000002AFBD170470000014908607047000033
:10378000440000202DE9FF4F8DB09B460F460446B4
:10379000002606E025280BD05A460F999047641C56
:1037A000761C20780028F5D111B03046BDE8F08FA6
:1037B0000025A8460122984900E0054314F8013F7E
:1037C000203B02FA03F00842F7D120782E2817D1C7
:1037D00014F8010F45F004052A280ED06FF02F02CF
:1037E0002078A0F1300109290AD808EB880102EB02
:1037F000410100EB0108641CF2E757F8048B641CDC
:1038000020786C280DD004DC4C2812D06A2811D105
:1038100004E074280DD07A280CD10AE045F4001594
:1038200007E0617845F48015814202D1641C05F5FA
:103830008015641C2278692A45D008DC002AB3D0A0
:10384000582A69D0632A10D0642A08D13BE0702A34
:1038500067D0732A13D0752A5CD0782A5CD01046C2
:103860005A460F999047761CD3E017F8040B8DF851
:10387000000000208DF80100E946012003E057F820
:10388000049B4FF0FF3069074FF0000501D40AE0B8
:103890006D1C45450DDA8542FADB19F80510002943
:1038A000F6D106E06D1C8542FCDB19F805100029F5
:1038B000F8D12E4404E019F8010B5A460F999047AD
:1038C0006D1EF8D2A5E00A200021CDE90801C5F35C
:1038D000025002280DD001CFC117031E71F1000361
:1038E0000DDA4FF0000CD0EB0C006CEB01012D2336
:1038F00008E0FF1D27F00707F7E80201EDE72B05B9
:1039000004D52B238DF8283001233BE0EB0739D079
:103910002023F7E70A2000E010200021CDE908016C
:1039200007E01020002145F00405CDE908014FF023
:103930000808C5F3025002280FD001CF00214FF034
:10394000000A2B071FD5702A0DD0DDE908C38CF0C3
:10395000100C5CEA030C0CD015E0FF1D27F00707E4
:10396000F7E80201EBE740228DF828204FF0010A2A
:103970000BE050EA010306D030238DF828308DF893
:10398000292002239A46582A04D024A20DF12009A6
:103990000B9209E026A2F9E7DDE90823FCF7B3FD65
:1039A0000B9B9B5C09F8013D50EA0102F4D1ADEBA1
:1039B000090020300890680701D44FF001080899E9
:1039C000884502DDA8EB010000E0002080460025CC
:1039D00006E00AA85A46405D0F9990476D1C761C78
:1039E0005545F6DB04E030205A460F999047761C87
:1039F000B8F10001A8F10108F5DC05E019F8010BA8
:103A00005A460F999047761C0899481E089000293D
:103A1000F4DC641CC5E600000928010030313233B3
:103A200034353637383961626364656600000000FA
:103A300030313233343536373839414243444546E4
:103A4000000000000A68531C0B60107070470000F3
:103A50002DE9F84F04460D4621F0004000917349CE
:103A6000814211DC7249884201DC06D12CB120462A
:103A70002946BDE8F84FFFF755BE6E48002DCCBF74
:103A80006D496E49BDE8F88F6D49814211DD6D4980
:103A90008142D8BF4FF0FF366DDD20462946FFF743
:103AA000CFFD042808BFFFF74FFE20462946BDE89A
:103AB000F88F6549654F25F00045814233DD644943
:103AC000814219DD002632464FF0804320462946C8
:103AD000FCF756FB80468A46012220462946FCF721
:103AE000F8FD00223B46FCF7ECFB42465346FCF750
:103AF00060FC04460D463EE001260022BA463B46E5
:103B000020462946FCF73CFB80460F4600225346E0
:103B100020462946FCF7D5FB42463B46FCF749FCCC
:103B200004460D4627E04B4981421BDDDFF828A102
:103B300002260022534620462946FCF7C8FB0022F5
:103B40003B46FCF71DFB80460F46002253462046AD
:103B50002946FCF7B6FB42463B46FCF72AFC0446E6
:103B60000D4608E0032622462B4600203B49FCF781
:103B700020FC04460D4622462B4610461946FCF70B
:103B8000A6FB8B46824602460B46FCF7A0FB074687
:103B90000246334888460B4606217844FFF764FD09
:103BA00052465B46FCF793FB82462E488B463A46CC
:103BB000434605217844FFF757FD3A464346FCF754
:103BC00086FB02460B46002E504659460CDAFCF79F
:103BD000D7FA22462B46FCF77AFB01B022462B4649
:103BE000BDE8F04FFCF770BBFCF7CAFA22462B4643
:103BF000FCF76DFB1C4A7A4402EBC603D3E90023B1
:103C0000FCF75FFB22462B46FCF75BFB174A7A4426
:103C100002EBC603D3E90023FCF756FB009A002A07
:103C2000B8BF81F00041BDE8F88F000000001044EB
:103C30000000F07F182D4454FB21F93FFB21F9BF10
:103C40000000DC3F0000203E0000F33F0000F03F9A
:103C50000000E63F008003400000F83F0000F0BF96
:103C6000BA1A0000781A0000161A0000DE190000C7
:103C70002DE9F047434EB069FCF732FC4FF0804A23
:103C80000022534600F048FB04460D467069FCF7DD
:103C900027FC0022534600F03FFB22462B46FCF750
:103CA0006FFA01F025F8044630690D4680F00040B7
:103CB000FCF716FC22462B46FCF77BFBFFF7C8FE01
:103CC000314FDFF8C8803A464346FCF700FBFCF76B
:103CD000E8FB3081B069FCF703FC0022534600F09A
:103CE0001BFB04460D463069FCF7FAFB00225346E5
:103CF00000F012FB22462B46FCF742FA00F0F8FFD8
:103D0000D6F8149004460D4689F00040FCF7E8FB15
:103D100022462B46FCF74DFBFFF79AFE3A464346F8
:103D2000FCF7D5FAFCF7BDFB70814846FCF7D8FBE1
:103D30000022534600F0F0FA04460D463069FCF7C5
:103D4000CFFB0022534600F0E7FA22462B46FCF751
:103D500017FA00F0CDFF0446B0690D4680F0004030
:103D6000FCF7BEFB22462B46FCF723FBFFF770FE59
:103D70003A464346FCF7ABFAFCF793FBB081BDE84B
:103D8000F087000010000020F6285C8FC2A54C4090
:103D9000F0B58FB0282105A8FCF7DBF90123062137
:103DA00000200390049003AA1C4CCDE90021FF20C1
:103DB00002906078E27841001948FDF7EBF800B115
:103DC000FEE79DF80D009DF80C1040EA012000B2BE
:103DD0009DF80F109DF80E2041EA02210DB29DF8CA
:103DE00011109DF8102041EA02210EB2FCF750FBA1
:103DF0006FF00C073946FCF7B7F920612846FCF74D
:103E000047FB3946FCF7B0F960613046FCF740FBF0
:103E10003946FCF7A9F9A0610FB0F0BD10000020F1
:103E2000480400202DE9FC41FFF722FF002000900C
:103E30000190394D39A16846B5F90820FFF7ECFB30
:103E400012210320FEF7DCFF012236496846FFF706
:103E5000E1F8B5F90A2034A16846FFF7DDFB1E2121
:103E60000320FEF7CDFF01222E496846FFF7D2F866
:103E7000B5F90C202EA16846FFF7CEFB28210320C0
:103E8000FEF7BEFF012227496846FFF7C3F8FFF798
:103E9000D5F8294E2869B04201D8012200E000225D
:103EA000264FB84201DA012100E000210A40696989
:103EB000B14201D8012300E00023B94201DA012414
:103EC00000E0002423401A401D4CAB69A34201DBF3
:103ED000012400E000241B4DAB4201DA012300E085
:103EE00000231C40224203D0FFF7CAF8BDE8FC8142
:103EF000B04202D9FCF7B9FCF8E7B84202DBFCF7A4
:103F00008BFCF3E7B14202D9FEF709FCEEE7B942B8
:103F1000ECDBFEF749FDE9E710000020583A256484
:103F20000000000000000020593A25640000000055
:103F30005A3A256400000000CDCC4CBECDCC4C3E9E
:103F4000CDCC4C3F9A99993F10B5002821D0114B08
:103F50000022001F196803E0814203D80A4649681D
:103F60000029F9D152B11368841A9C4204D1006827
:103F700018441060104602E0506000E0186039B14B
:103F800002680B1A934203D10B681A440260496815
:103F9000416010BD3C0000202DE9F041A6B0012594
:103FA0004FF47A7728211CA8FCF7D3F800261B963B
:103FB0001BA8444C8DE8A10060782B464100A278F4
:103FC0004148FCF7E7FF9DF86C0021784FF6FF7839
:103FD00088420ED03DA11CA8FFF71EFB28223A48BC
:103FE00043461CA9D430FEF7BAF8B800FCF7B0FC81
:103FF0000DE03FA11CA8FFF70FFB282232484346E3
:104000001CA9D430FEF7ABF8C820FCF7A1FC0820AF
:104010001A9001251AA88DE8A10060782B4641006E
:1040200062792948FDF714F91420FCF791FC03206C
:10403000199019A88DE8A100607801234100A279A8
:104040002148FDF705F91420FCF782FC1896179615
:1040500016962E0218A88DE8610060782B46410064
:1040600062791948FCF796FF17A88DE8610060781F
:104070002B46410022791448FCF78CFF16A88DE8E6
:10408000610060782B464100A2790F48FCF782FF5F
:10409000482104A8FCF75DF89DF8580000909DF8B1
:1040A0005C309DF860201AA104A8FFF7B5FA4622FB
:1040B0000548434604A9D430FEF751F826B0BDE8C0
:1040C000F08100001000002048040020434F4E4EB5
:1040D000454354494F4E5F544F5F4144584C33342D
:1040E000355F4552524F52212121200D0A00000018
:1040F000434F4E4E454354494F4E5F544F5F4144EA
:10410000584C3334355F4F4B2020200D0A000000FF
:104110004255463A202020504F5745525F43544C59
:104120002D2025582C2042575F524154452D2025E3
:10413000582C20444154415F464F524D41542D204C
:104140002558200D0A0000007FB5FEF75FFE3649B6
:10415000D1E900238968CDE90123039101285DD0CD
:1041600032A101A8FFF758FA0020FEF73DFE002417
:1041700010250126241DABB2A2B2A9B200200096E0
:10418000FEF74BFDFEF75AFF7F2C08DB0020ABB299
:10419000A2B2A9B20090FEF740FDFEF74FFF641CEB
:1041A000802CE7DB00210846FEF72AFE0122224987
:1041B00022A0FEF72FFF0A23822219460020009634
:1041C000FEF72BFD22233C22102100200096FEF753
:1041D000CFFD082426250123224629464A20FEF742
:1041E0000BFC5F260123224629463046FEF704FCDD
:1041F0000123224629467420FEF7FEFB06240123F4
:10420000224616213046FEF7F7FB012322463621CF
:104210003046FEF7F1FBFEF711FF7FBD0CA101A8B0
:10422000FFF7FAF9A0E70000CC5500084552524FBD
:10423000522121212100000000000020414343457C
:104240004C45524154494F4E20672F73656300001F
:104250004F4B0000FDF7D6F8FEF742FFFEF788FA55
:10426000FEF70AFBFEF72EFBFEF752FBFEF7C6FA3F
:10427000FEF79CFAFFF790FEFFF766FFFEF7BEFA27
:104280000948FDF7C3FC0848FDF7CDFC00F0BEFD72
:1042900000F092FD0448FDF7D2FCFFF7C3FD024891
:1042A000FDF7B4FCF2E700009C040020F0B50B30F1
:1042B000154D20F007010024144A0FE003688B42DB
:1042C0000BD38B4205D95E1A43184768C3E90067D0
:1042D00000E04368136002C004E0021D106800287B
:1042E000ECD12046002802D1286808B10020F0BD9A
:1042F000064A07481060074A121A22F00702C0E96E
:10430000002401202860D7E7400000203C00002066
:10431000A4050020A00700202DE9F04D1D460C4605
:1043200098B0174621F0004123F00043002814BF45
:104330004FF0010C4FF0000C0CEB440CFE4A0CEB60
:1043400002064FEA620C66452BD33E0018BF0126D9
:1043500006EB45061644F94A964222D3F84A53EA38
:10436000070C02D0944205D148B918B0002011467C
:10437000BDE8F08D002808BF4FF0000C01D04FF0D1
:10438000010C0CEB440212F5001F0AD8002F14BFD9
:104390004FF0010C4FF0000C0CEB450212F5001F22
:1043A00007D918B03A462B462146BDE8F04DFFF735
:1043B000BCB90022DFF88CA3002CB8BF534526DA25
:1043C000DFF884C36345A8BF022220DADFF870C398
:1043D0009C451CDCDFF874C30CEB235CBCF1140FB0
:1043E00008DDCCF1340627FA06FC0CFA06F6BE42CC
:1043F0000DD108E05FB9CCF1140623FA06FC0CFAE3
:1044000006F69E4203D10CF00102C2F1020251EA0B
:10441000000C19D1002D17DA002C18BF022A01D088
:10442000012A07D00220FFF7A7F918B0BDE8F04D28
:10443000FFF770B90220FFF79FF9FFF76BF918B08B
:1044400081F00041BDE8F08DB7F1000C6CD153450F
:1044500025D104F1804212F5801201BF002800200E
:10446000B74918B008BFBDE8F08DB548884207DCF1
:10447000002DA1BF6046294618B0BDE8F08D07E0C9
:10448000281E05DA80F0004118B06046BDE8F08DC6
:10449000AF497944D1E9000118B0BDE8F08DDFF8EB
:1044A000A0C2634525D1002D1FDA19B1514512D1A3
:1044B000D8B909E0002840F0EC82A24A214618B0A1
:1044C00062F31E01BDE8F08D0020214618B060F3B4
:1044D0001E01BDE8F08D08DA18B02346BDE8F04DA6
:1044E000024600206146FBF764BF18B02146BDE8D4
:1044F000F08D514518DAB5F1804F0DD0A5F1005C73
:10450000BCF1FF5C10D1B4F1000C0DDB18B06146BA
:10451000BDE8F04D00F0ECBB234618B00246BDE804
:10452000F04D1946FBF7D3BE060024F0004C3BD1FA
:10453000D9B1514533D1002C06DD002DA1BF00209B
:10454000514618B0BDE8F08D002C01DD002D1BDBBD
:10455000002C13DA002D11DB012A4FF0000014BFEC
:1045600078497C4918B0BDE8F08D022A18BF002CAC
:104570000AD0012A08D1002C06DA0AE0002CB8BFC4
:10458000002D11DA012A04D0002018B00146BDE840
:10459000F08D18B000204FF00041BDE8F08DA1F182
:1045A0004050B0F17F601AD0012000EBE47050EA77
:1045B000020421D0624C521E4FF0000B104304BF86
:1045C0004FF0000B644C654883427CDD644A6548CB
:1045D00093421FDD884217DB002D25DB37E0002CDE
:1045E00000DA4AB1022A0CBF01204FF0FF3018B0A8
:1045F000BDE8F04DFCF7D5B80120FFF7BDF818B0C5
:10460000BDE8F04DFFF793B84D4A8A4202DC002D19
:104610000ADC1CE0814202DA002D18DA04E0484B83
:10462000994220DD002D12DD0220FFF7A5F8FFF7EB
:1046300084F805460E460022534658462146FBF7AD
:1046400046FE18B066F31E012846BDE8F08D022034
:10465000FFF792F8FFF778F80A46214618B062F3A0
:104660001E01BDE8F08D002230466146FBF729FEB1
:1046700080460E466FF00102FCF72BF84FF05532E2
:10468000394BFBF721FE42463346FBF720FE002262
:10469000364BFBF719FE82464246334604911046DC
:1046A0001946FBF714FE5246049BFBF710FE8A46A0
:1046B00000904FF0C0422E4B40463146FBF707FEBC
:1046C0002C4A2B4B00E027E0CDE90601514600982B
:1046D000FBF7FDFD82460191274A284B40463146B3
:1046E000FBF7F5FD5246019BFBF7EBFD82460B46BF
:1046F00002460591DDE90601FBF742FDDDE90623EF
:10470000002688463046FBF7DCFD5246059BFBF74A
:10471000DBFD024600F07EB90020B1F5801F07DA0C
:10472000352230466146FBF7D4FF06466FF0340071
:1047300000EB215024E00000FFFF1F00FFFF0F00EF
:104740000000F03F0000F07F0000404301FCFFFF4D
:104750007A1200000000F0FF0000F0BF0000E0410E
:104760000000F043FFFFEF3F5555D53F0000E03F0D
:104770004715F73FFE822B6544DF5DF80BAE543ED4
:10478000A0F2FF300190C1F3130040F07F6141F0CF
:1047900040510291FE498842D8BF002004DDFD4906
:1047A0008142C8BF012001DD0D9008E000200D907E
:1047B0000198401C01900298A0F580100290029987
:1047C000F54878440B910D9900EBC100D0E9002326
:1047D0000F9330460A920B99FBF773FDCDE9060162
:1047E000DDE90A2130460F9BFBF7CAFC02460B4667
:1047F0000020EA49FBF7DDFD059102460B460090DB
:10480000DDE90601FBF763FD1490E5488A464FF0A9
:10481000000878440299006812904FF0005040EA76
:1048200061010D980F9B01EB804000F5002109917B
:104830000A9A1298FBF745FD32460B9BFBF744FDA5
:1048400042465346FBF743FD064602914046514619
:10485000099B129AFBF73BFDDDE90623FBF734FDCC
:104860003246029BFBF72DFD059B009AFBF72FFDBF
:104870000091149A0490534610461946FBF727FD01
:1048800006460246C7480B46029106217844FEF7C9
:10489000EBFECDE90510029B324610461946FBF7A8
:1048A00016FDDDE90532FBF712FD0591064653467C
:1048B00040461946149AFBF763FC009B049AFBF7E9
:1048C00006FD3246059BFBF75BFCCDE90510424631
:1048D000534610461946FBF7FAFC0022B24B0291F0
:1048E0000A90FBF74DFCDDE90532FBF749FC0E466B
:1048F0004246AD4B4046FBF7E4FC029B0A9AFBF7AD
:10490000E0FCDDE90532FBF7DFFC424602910A904C
:10491000334610465146FBF7DAFCCDE90601534613
:10492000149A02990A98FBF7D2FC8A460290334601
:10493000424600990498FBF7CAFC5346029AFBF7DB
:104940001FFC82460B4602460591DDE90601FBF796
:1049500017FCDDE90623002088460646FBF7B1FC7C
:104960005246059BFBF7B0FC824609914FF060422E
:104970008E4B30464146FBF7AAFC049006918C4AC8
:104980008A4B50460999FBF7A2FC82460291894A5C
:10499000894B30464146FBF79AFC5246029BFBF797
:1049A000EFFB864B7B440D9A03EBC203D3E9002354
:1049B000FBF7E6FB0E9007910198FBF7F2FE0591DD
:1049C000DDE9061382460E9A0498FBF7D9FB7C4A70
:1049D0007A440D9B02EBC303D3E9002300930292B8
:1049E000FBF7CEFB5246059BFBF7CAFB0026884629
:1049F00052463046059BFBF764FC009B029AFBF78E
:104A000060FC069B049AFBF75CFC079B0E9AFBF785
:104A10005BFC024600200B46029038462946FBF715
:104A200056FC824601912B4638461946029AFBF7FE
:104A300048FC32464346FBF74AFC5246019BFBF7D3
:104A40009FFB07468A463246434629460298FBF7B3
:104A50003EFC05460E463A465346FBF791FB594A43
:104A60008846914221DBA8EB020353EA000210D1F1
:104A70002A463346FBF725FCCDE90401524A534B45
:104A800038465146FBF77CFBDDE90423FBF79AFE31
:104A900021D20220FEF770FEFEF74FFE0A462146A5
:104AA00018B062F31E01BDE8F08D494B28F00042BA
:104AB0009A4210D3474A08EB020353EA00027FF4FC
:104AC000C6AD2A463346FBF7FCFB3A465346FBF796
:104AD00079FE7FF6BCAD0022019228F000403E49ED
:104AE0003E4A01EB2051824223DA481C4FF48011E8
:104AF00021FA00F040443A4AC0F30A517A44394B53
:104B0000A1F2FF31CB4020EA0303C0F3130040F4CD
:104B10008010C1F11401C84012680190B8F1000F73
:104B2000BCBF4042019028463146FBF7CAFB054610
:104B30000E462A46334638465146FBF721FB4FF0D6
:104B400000084246284B40460591FBF7C0FBCDE9E3
:104B50000601264A264B40460599FBF7B8FB009113
:104B600002902A46334640460599FBF7AAFB3A468F
:104B70005346FBF7A9FB1F4A1F4BFBF7A8FB009B03
:104B8000029AFBF7FDFA0746884602460B4635E0D7
:104B90008E9803007AB60B00C20E00000000F03FB2
:104BA000FA0E0000280E00000000084009C7EE3F82
:104BB000FD033ADCF5015B14E02F3EBE000D000062
:104BC000C40C000000009040FE822B654715973C06
:104BD00000CC904000346F3F01FCFFFF0000E03F3D
:104BE000100C0000FFFF0F00432EE63F396CA80CAD
:104BF000615C20BEEF39FAFE422EE63FDDE9060198
:104C0000FBF7BEFADDE9062305460E46FBF759FB26
:104C10003A464346FBF758FB0F462A463346009078
:104C200010461946FBF753FB824602462E4888463B
:104C30000B4605217844FEF717FD52464346FBF725
:104C400046FB2A463346FBF73FFB80468A463B46F7
:104C500028463146009AFBF73AFB3B46009AFBF7A1
:104C60008FFA0691009000224FF080434046514653
:104C7000FBF727FB0F460C90424653462846314629
:104C8000FBF725FB3B460C9AFBF793FB069B009A30
:104C9000FBF717FB2A463346FBF713FB0022134BA7
:104CA000FBF712FB054601980E4601EB0051081573
:104CB000002810DC28463146019AFBF70AFDFEF772
:104CC000BFFC042808BFFEF73FFD28463146019A85
:104CD000FBF7FFFC05460B4618B02A46584621460E
:104CE000BDE8F04DFBF7F3BAB00A00000000F03F5A
:104CF0002DE9F04106460F46FBF702FD041E0D4666
:104D000018BF0120284320F00040C0F17F6000F16F
:104D1000E040C00F0ED0301C18BF0120384320F0F7
:104D20000040C0F17F6000F1E040C00F04BF0120EF
:104D3000FEF722FD20462946BDE8F0810248401ECC
:104D40000028FCD17047000090D003001CB58DF8FE
:104D500004108DF805200A2100910146022301AAC2
:104D60000148FCF767F81CBD480400202DE9F84312
:104D70000746884615461E46701CFFF797FA0446FC
:104D800084F80080012005E0291811F8011C215445
:104D9000401CC0B2B042F7D90A20009033462246E8
:104DA00039460448FCF746F82046BDE8F843FFF7CB
:104DB000CBB800004804002010B58CB0282102A810
:104DC000FBF7C7F928240A48B0F90C100091B0F994
:104DD0000A30B0F9082007A102A8FEF71DFCFF2346
:104DE000224602A90848FDF7BAF90CB010BD000030
:104DF00010000020583A256420593A2564205A3A78
:104E00002564200D0A000000DC04002010B58CB0E1
:104E1000282102A8FBF79DF928240A48B0F90C10B4
:104E20000091B0F90A30B0F9082007A102A8FEF7F6
:104E3000F3FBFF23224602A90848FDF790F90CB0C6
:104E400010BD000010000020583A256420593A2572
:104E500064205A3A2564200D0A0000001C05002039
:104E60000000000000000000000000000000000042
:104E700000000000001000100010001000100010D2
:104E8000000000100000000000280028002800009A
:104E900000000000000000000000000000240024CA
:104EA000007C00240048007C00480048000000000E
:104EB00000380054005000380014005400540038EA
:104EC000001000000020005400580030002800545A
:104ED0000014000800000000001000280028001046
:104EE00000340048004800340000000000100010AA
:104EF00000100000000000000000000000000000A2
:104F000000080010002000200020002000200020C9
:104F10000010000800200010000800080008000829
:104F200000080008001000200010003800100028C1
:104F30000000000000000000000000000000000071
:104F400000100010007C00100010000000000000A5
:104F50000000000000000000000000000000001041
:104F600000100010000000000000000000000038E9
:104F70000000000000000000000000000000000031
:104F80000000000000000010000000000008000801
:104F90000010001000100010002000200000000091
:104FA00000380044004400540044004400440038E9
:104FB0000000000000100030005000100010001031
:104FC00000100010000000000038004400440004FD
:104FD000000800100020007C0000000000380044A1
:104FE0000004001800040004004400380000000021
:104FF00000080018002800280048007C000800086D
:1050000000000000007C0040004000780004000424
:1050100000440038000000000038004400400078E0
:10502000004400440044003800000000007C0004FC
:1050300000080010001000200020002000000000E8
:105040000038004400440038004400440044003864
:10505000000000000038004400440044003C00040C
:1050600000440038000000000000000000100000B4
:105070000000000000000010000000000000000020
:1050800000000010000000000000001000100010E0
:1050900000000000000C003000400030000C000058
:1050A00000000000000000000000007C0000007C08
:1050B0000000000000000000000000000060001878
:1050C00000040018006000000000000000380044E8
:1050D0000004000800100010000000100000000094
:1050E00000380044004C0054005C00400040003890
:1050F0000000000000100028002800280028007C84
:10510000004400440000000000780044004400789F
:1051100000440044004400780000000000380044CF
:105120000040004000400040004400380000000003
:1051300000700048004400440044004400480070EF
:1051400000000000007C00400040007C0040004067
:105150000040007C00000000007C0040004000781F
:1051600000400040004000400000000000380044C3
:1051700000400040005C0044004400380000000093
:10518000004400440044007C0044004400440044C7
:105190000000000000380010001000100010001087
:1051A00000100038000000000004000400040004A7
:1051B00000040004004400380000000000440048DF
:1051C000005000600050004800480044000000000B
:1051D0000040004000400040004000400040007C93
:1051E000000000000044006C006C005400440044C7
:1051F00000440044000000000044006400640054C7
:105200000054004C004C00440000000000380044F2
:105210000044004400440044004400380000000002
:105220000078004400440044007800400040004002
:1052300000000000003800440044004400440044E2
:10524000005400380004000000780044004400448A
:105250000078004800480044000000000038004486
:105260000040003000080004004400380000000046
:10527000007C001000100010001000100010001042
:105280000000000000440044004400440044004486
:10529000004400380000000000440044004400289E
:1052A0000028002800100010000000000044004406
:1052B000005400540054006C002800280000000036
:1052C0000044002800280010001000280028004496
:1052D00000000000004400440028002800100010D6
:1052E0000010001000000000007C00040008001006
:1052F000001000200040007C00000000001800109A
:105300000010001000100010001000100010001815
:1053100000200020001000100010001000080008FD
:1053200000000000003000100010001000100010FD
:105330000010001000100030001000280028004469
:10534000000000000000000000000000000000005D
:10535000000000000000000000000000000000FE4F
:10536000002000100000000000000000000000000D
:10537000000000000000000000380044003C004431
:10538000004C003400000000004000400058006461
:1053900000440044006400580000000000000000C9
:1053A0000038004400400040004400380000000085
:1053B000000400040034004C00440044004C00345D
:1053C000000000000000000000380044007C0040A5
:1053D0000044003800000000000C0010007C0010A9
:1053E000001000100010001000000000000000007D
:1053F0000034004C00440044004C003400040078A9
:105400000040004000580064004400440044004450
:1054100000000000001000000070001000100010DC
:1054200000100010000000000010000000700010CC
:105430000010001000100010001000E000400040BC
:105440000048005000600050004800440000000088
:10545000007000100010001000100010001000106C
:1054600000000000000000000078005400540054C8
:1054700000540054000000000000000000580064C8
:10548000004400440044004400000000000000000C
:10549000003800440044004400440038000000008C
:1054A00000000000005800640044004400640058FC
:1054B00000400040000000000034004C0044004464
:1054C000004C003400040004000000000058006498
:1054D00000400040004000400000000000000000CC
:1054E000003800440030000800440038000000008C
:1054F000002000200078002000200020002000185C
:10550000000000000000000000440044004400448B
:10551000004C003400000000000000000044004483
:1055200000280028002800100000000000000000F3
:10553000005400540054006C0028002800000000B3
:105540000000000000440028001000100028004463
:105550000000000000000000004400440028002873
:10556000001000100010006000000000007C000827
:10557000001000200040007C000000000018001017
:105580000010001000200020001000100010001873
:10559000001000100010001000100010001000108B
:1055A000001000100030001000100010000800086B
:1055B0000010001000100030000000000000007417
:1055C000004C000000000000000000000A00000085
:1055D00000000000000000000000000000000102C8
:1055E000030406070809000000000102030400008C
:1055F0004FBB610567ACDD3F182D4454FB21E93FEB
:105600009BF681D20B73EF3F182D4454FB21F93FD9
:10561000E2652F227F2B7A3C075C143326A6813C5F
:10562000BDCBF07A8807703C075C143326A6913C0A
:10563000C4EB98999999C9BF711623FEC671BCBF76
:105640006D9A74AFF2B0B3BF9AFDDE522DDEADBFDE
:105650002F6C6A2C44B4A2BF0D5555555555D53FF6
:10566000FF8300922449C23F6E204CC5CD45B73F11
:10567000513DD0A0660DB13FEB0D76244B7BA93F89
:1056800011DA22E33AAD903F000000000000F03F45
:10569000000000000000F83F0000000000000000D3
:1056A0000000004003B8E23F0000000000000000DE
:1056B00006D0CF43EBFD4C3E033333333333E33F6C
:1056C000FFAB6FDBB66DDB3F4D268F515555D53F98
:1056D00001411DA96074D13F65DBC9934A86CD3F66
:1056E000EF4E454A287ECA3F3E5555555555C53F54
:1056F00093BDBE166CC166BF2CDE25AF6A56113F46
:10570000F16BD2C541BDBBBED0A4BE726937663E47
:1057100000000000000000003857000800000020D2
:105720004800000058370008805700084800002053
:10573000580B000068370008070A0000604E000898
:105740000000000000000000E55300322C2D310065
:105750000000000000000000000000000000000049
:105760000000000001000000100000000000000028
:1057700000A24A0400000000000000000000000039
:04000005080000ED02
:00000001FF
