:020000040800F2
:10000000900B0020010100089F270008BD20000878
:100010009D270008450700080D300008000000007B
:10002000000000000000000000000000C52A0008D9
:100030004707000800000000C1270008C72A000881
:100040001B0100081B0100081B0100081B01000820
:100050001B0100081B0100081B0100081B01000810
:100060001B0100081B0100081B0100081B01000800
:100070001B0100081B0100081B0100081B010008F0
:100080001B0100081B0100081B0100081B010008E0
:100090001B0100081B0100081B0100081B010008D0
:1000A0001B0100081B0100081B0100081B010008C0
:1000B0001B010008A52B00081B0100081B010008FC
:1000C0001B0100081B0100081B0100081B010008A0
:1000D0001B010008F52F0008013000081B01000873
:1000E0001B0100081B0100081B010008DFF80CD0F1
:1000F00000F098FA00480047A93B0008900B002048
:100100000648804706480047FEE7FEE7FEE7FEE7B1
:10011000FEE7FEE7FEE7FEE7FEE7FEE75D2B0008F1
:10012000ED000008202A04DB203A21FA02F0002129
:10013000704721FA02F3D040C2F1200291400843F7
:1001400019467047D2B201E000F8012B491EFBD2DC
:1001500070470022F6E710B513460A4604461946D2
:10016000FFF7F0FF204610BD420005D0C0F3C75294
:100170005242914201DC0020704700EBC1507047B1
:10018000C10F80EAE0700844CA079623002100F0FE
:1001900063B800F0004230F000400AD0C10D01F514
:1001A0006071C0F3160042EA0151C20840071143D2
:1001B000704700200146704730B50B4601460020CD
:1001C0002022012409E021FA02F59D4205D303FA19
:1001D00002F5491B04FA02F52844151EA2F101029A
:1001E000F1DC30BD2DE9F05F0546002092469B46CC
:1001F00088460646814640241BE02846414647463D
:100200002246FFF78FFF53465A46C01A914110D33A
:1002100011461846224600F017FA2D1A67EB01081E
:100220004F4622460120002100F00EFA17EB00098C
:100230004E41201EA4F10104DFDC484631462A4627
:100240004346BDE8F09F0029A8BF7047401C490005
:1002500008BF20F00100704710B4B0FA80FC00FA2B
:100260000CF050EA010404BF10BC704749B1CCF156
:10027000200421FA04F411FA0CF118BF01212143E2
:100280000843A3EB0C01CB1D4FEA00614FEA10209D
:1002900042BF002010BC704700EBC350104400293F
:1002A000A4BF10BC7047401C490008BF20F00100EB
:1002B00010BC70472DE9FE4F804681EA0300C00F55
:1002C0000C46009021F0004123F00045B8EB0200FD
:1002D000A94105D24046214690461C460B4602469F
:1002E00023F00040104347D0270DC7F30A00C3F3A3
:1002F0000A510290401A019040286BDAC3F31300B0
:1003000040F4801B0098924620B10023D2EB030AF0
:1003100063EB0B0B01985946C0F14002504600F0C8
:1003200093F906460D4650465946019A00F09BF94E
:1003300010EB08006141002487EA115284EAE77358
:100340001A4340D0009A62B3019A012A4FEA075239
:1003500015DC001B61EB02014FF0004202EA07527C
:10036000CDE90042001C41F5801132462B4600F0D9
:100370009BF903B0BDE8F08F40462146F9E7001B2A
:1003800061EB0201001C41F5801300185B4120184D
:10039000A2F5001747EB030140EAD570B6196D418D
:1003A00011E06D084FEA360645EAC0754FEA07527C
:1003B000001B61EB0201001C41F5801149084FEA66
:1003C00030000019514132462B4603B0BDE8F04FD2
:1003D00000F05BB90098012240000023D0EB02023C
:1003E00063EBE073009821464FEAE074B8EB00003D
:1003F00061EB0401E9E783F000435BE781F0004132
:1004000058E72DE9FE4F81EA030404F0004421F08F
:10041000004100944FF0000B23F0004350EA010428
:100420005ED052EA03045BD0C3F30A54C1F30A5509
:100430002C44A4F2F3340194A0FB0254C1F3130141
:1004400041F48011C3F3130343F4801301FB02440E
:1004500000FB034E840A970A44EA815447EA835713
:10046000A4FB076802958D0A05FB07854FEA932CCC
:1004700004FB0C542705029D4FEA065847EA16373D
:10048000B5EB08056EEB070C870E920E47EA811755
:1004900042EA8312A7FB0201B6EB0B0164EB0004F6
:1004A0002B0D43EA0C335E1844EB1C50DA465146E0
:1004B000E7FB0201C5F313044FEA0B3343EA14537D
:1004C0004FEA0432019C43EA0603A4F10C040294AF
:1004D000009CCDE900B400F0E7F803B0BDE8F08F70
:1004E00000200146F9E72DE9F04D81EA030404F00C
:1004F000004B21F0004514464FF0000A23F0004164
:1005000050EA050220D054EA01021DD0C5F30A5773
:100510000246C5F31303C1F31300C1F30A5640F4B6
:10052000801543F48013A7EB0608101BD64608F28B
:10053000FD3873EB050002D308F1010801E09218C1
:100540005B41B8F1000F03DA00200146BDE8F08DF1
:1005500000204FF48011064684460EE0171B73EB13
:10056000050705D3121B63EB050306434CEA010C98
:1005700049084FEA300092185B4150EA0107EDD17B
:1005800052EA030012D082EA040083EA050108431C
:1005900005D0101BAB4106D20122002306E0002249
:1005A0004FF0004302E06FF0010253101AEB060017
:1005B0004CEB085110EB0A0041EB0B01BDE8F04D8C
:1005C00000F063B8C1F30A52C1F3130140F2FF33E4
:1005D00041F480119A4202DA00200146704740F24D
:1005E00033439A42A2F2334202DC5242FFF79ABDF1
:1005F00000F02AB830B5041E71F1000404DB4FF09E
:100600000044404264EB0101141E73F1000405DB59
:100610001C464FF00043524263EB0403994208BF6B
:10062000904230BD064C074D06E0E06840F0010303
:1006300094E8070098471034AC42F6D3FFF75AFD10
:100640003845000858450008202A04DB203A00FA03
:1006500002F1002070479140C2F1200320FA03F319
:10066000194390407047202A06DBCB17203A41FA05
:1006700002F043EAE07306E041FA02F3D040C2F12F
:100680002002914008431946704710B5141E73F1BB
:10069000000408DA401C41F1000192185B411A4342
:1006A00001D120F0010010BD2DE9F04D92469B468E
:1006B00011B1B1FA81F202E0B0FA80F22032904634
:1006C000FFF7C2FF04460F4640EA0A0041EA0B0169
:1006D00053465A46084313D0114653EA010019D035
:1006E000C8F140025046FFF71DFD05460E46504634
:1006F00059464246FFF7A8FF084305D0012004E011
:1007000020463946BDE8F08D0020054346EAE076F4
:100710002C4337430A986305E40AA0EB0800002243
:10072000FD0A44EA47540A3002D500200146E9E7B1
:10073000010510196941DDE9084500196941BDE865
:10074000F04DA2E7FEE7704710B5002490F82110A5
:10075000022903D00421816301243DE001680A6875
:1007600022F00E020A6001680A6822F001020A60A3
:100770001A4A0168914201D1012121E0174A14323D
:10078000914201D110211BE0144A2832914201D13B
:10079000891515E0114A3C32914201D189140FE0CC
:1007A0000E4A5032914202D14FF4803108E00B4A98
:1007B0006432914202D14FF4801101E04FF0807118
:1007C000064A083A5160012180F82110002180F882
:1007D0002010416B01B18847204610BD080002403F
:1007E00070B5044600F008F90546601C02D00448C4
:1007F0000078044400F000F9401BA042FAD370BD19
:10080000240000202DE9F84F00230024DFF8C091D8
:100810004FF00F0809F1040A0AF1040B0BF1040E62
:100820000127A7400A683A40BA4275D1DFF8A4C14F
:100830004D68A5EB0C0665452BD00DDC032D34D09F
:1008400005DC35B3012D19D0022D2FD11BE0112D60
:1008500016D0122D2AD119E0B6F5881F19D006DC62
:10086000B6F5803F15D0B6F5801F1FD111E0B6F563
:10087000001F0ED0B6F5041F18D10AE0CB6815E0B2
:10088000CB681B1D12E0CB6808330FE0CB680C333C
:100890000CE08B6823B1012B04D00823476105E0ED
:1008A000042303E00823076100E00023FF2A01D8A6
:1008B000054601E000F1040502D84FEA840603E092
:1008C000A4F108064FEA86062F6808FA06FC27EA14
:1008D0000C0703FA06F647EA06072F604D68ED009D
:1008E00070D53D4DAE6946F00106AE61AD6905F0CB
:1008F00001050095394D24F003067719BE68A50758
:100900002D0F08FA05FC26EA0C06DFF8D4C0604576
:1009100003D14FF0000C17E054E0DFF8C8C0604589
:1009200002D14FF0010C0FE0DFF8BCC0604502D1EE
:100930004FF0020C08E0DFF8B4C0604502D14FF080
:10094000030C01E04FF0040C0CFA05FC4CEA060C19
:10095000C7F808C04D68ED0305D5D9F80050154318
:10096000C9F8005004E0D9F800509543C9F8005088
:100970004D68AD0305D5DAF800501543CAF80050AC
:1009800004E0DAF800509543CAF800504D68ED02D3
:1009900005D5DBF800501543CBF8005004E0DBF838
:1009A00000509543CBF800504D68AD0205D5DEF8F8
:1009B00000501543CEF8005004E0DEF80050954397
:1009C000CEF80050641C102CFFF42AAFBDE8F88F5D
:1009D000000401400000111000100240000001401E
:1009E00000080140000C01400010014000140140CB
:1009F000C2684A40C2607047014880687047000082
:100A00002400002070B50446002C04D094F83D006A
:100A1000002510B106E0012070BD84F83C5020464E
:100A200000F00EFC242084F83D002068016821F0CD
:100A30000101016000F0A0FD424A6168914203D8C3
:100A40004149884203D304E04049884201D2012051
:100A500070BD3F49B0FBF1F1236859606368934270
:100A600001D8491C07E04FF4967359434FF47A7349
:100A7000B1FBF3F1491C236819626168914210D8F7
:100A80004900401EB0FBF1F2521CC2F30B02042AD3
:100A900001D2042022E0B0FBF1F0401CC0F30B00B7
:100AA0001CE0A268CAB301EBC10303EB0116431EAD
:100AB000B3FBF6F35B1C43F480431B0536D06AB3EB
:100AC00001EBC10202EB0111401EB0FBF1F0401C32
:100AD000C0F30B0040F4804040F400402168C8613E
:100AE000D4E90701084321680860D4E903100843EA
:100AF00021688860D4E9050108432168C86020683E
:100B0000016841F0010101602564202084F83D0066
:100B1000256384F83E50002070BD00E008E001EB42
:100B20004106431EB3FBF6F35B1CC6E70120D5E785
:100B300001EB4101401EB0FBF1F0401CC0F30B0083
:100B4000CAE70000A086010080841E0000093D0065
:100B500040420F002DE9FF4F81B004468B461F46EF
:100B60000126FFF749FF054694F83D00202803D0F1
:100B7000022005B0BDE8F08F192301224F4920461D
:100B8000009501F039FC08B10220F2E794F83C002E
:100B9000012807D0012084F83C0020680168C907BB
:100BA00002D005E00220E4E7016841F001010160A4
:100BB0002068016821F400610160242084F83D0070
:100BC0004FF0000AC4F840A03D48E0624FF0200911
:100BD0002068016841F4807101603B4600224FF0BB
:100BE00001112046009501F007FC08B10320C0E781
:100BF00021680BF0FE000861FFF7FEFE0546206845
:100C00004169C1F340014069C0F3802094F83D2060
:100C10004FF0A00810E027B1FFF7EEFE401BB842EE
:100C200001D984F83D8020684169C1F340014069E1
:100C3000C0F3802094F83D20014301D1A02AEAD1DD
:100C400084F83D9020684169C943890718D4216818
:100C5000096841F400710160206841698069009071
:100C60001923012215492046009501F0C5FB08B162
:100C700003207EE784F83D9084F83CA0002078E7CC
:100C8000016841F40071016021686FF4806048617F
:100C90001923012209492046009501F0ADFB08B156
:100CA000032066E730460399761C884290D384F887
:100CB0003D9084F83CA001205BE70000020010009A
:100CC0000000FFFF2DE9F84F04468A4690469946FA
:100CD0000A9FFFF791FE054694F83D00202802D0B8
:100CE0000220BDE8F88F192301224C4920460095C7
:100CF00001F082FB08B10220F3E794F83C000128E0
:100D000007D0012084F83C0020680168C90702D0A0
:100D100005E00220E5E7016841F00101016020687B
:100D2000016821F400610160212084F83D00102059
:100D300084F83E0000262664C4F82480A4F82A9093
:100D40003748E062608D20852B463A465146204662
:100D500001F0CAF950B1206C042803D084F83C603B
:100D60000320BEE784F83C600120BAE720684169AF
:100D70008069009041E02A463946204601F0F1FBA7
:100D800058B1206C042801D00320AAE7206801682C
:100D900041F4007101600120A3E7606A411C6162B7
:100DA000216800780861608D401E6085208D401E9E
:100DB00080B2208522685169C94349070BD450B1DC
:100DC000606A411C616200781061608D401E608520
:100DD000208D401E20852A463946204601F0E6FA3D
:100DE00058B1206C042801D003207AE720680168FC
:100DF00041F400710160012073E7208D0028BAD111
:100E00001F3454F81F0C016841F400710160202068
:100E1000A077E6776677002063E700000200100005
:100E20000000FFFF2DE9FF4F83B00446DDE9119874
:100E30008A469346109FFFF7DFFD054694F83D0074
:100E4000202803D0022007B0BDE8F08F192301222B
:100E5000A0492046009501F0CFFA08B10220F2E740
:100E600094F83C00012807D0012084F83C00206859
:100E70000168C90702D005E00220E4E7016841F0FB
:100E8000010101602068016821F4006101602220F5
:100E900084F83D00402084F83E0000262664676206
:100EA000A4F82A908C48E062608D2085CDE9008509
:100EB0005A4651462046069B01F072F950B1206C0B
:100EC000042803D084F83C600320BCE784F83C602D
:100ED0000120B8E7208D70B1012815D0022823D059
:100EE0002068016841F4806101602068416980697F
:100EF00002907A4FE3E020684169816902910168BC
:100F000041F400710160F4E72068016821F4806118
:100F1000016072B62068416981690291016841F4FB
:100F20000071016062B6E4E72068016841F4006185
:100F3000016072B62068416981690291016821F4FB
:100F40008061016062B6D4E703286FD801280BD016
:100F5000022823D04346002239462046009501F05E
:100F60004BFAE8B303206EE72A464146204601F0DB
:100F7000C7FA30B1206C202801D0012063E703209C
:100F800061E720680169606A421C62620170208D1D
:100F9000401E2085608D401E608590E04346002203
:100FA00039462046009501F027FA08B103204AE7A8
:100FB00072B62068016841F400710160206801691F
:100FC000606A421C62620170208D401E2085608D27
:100FD000401E608562B620680169606A421C00E0BC
:100FE00008E062620170208D401E2085608D401EE9
:100FF000608564E02068016821F48061016072B658
:1010000020680169606A421C62620170208D401E86
:101010002085608D401E608543460022394620466B
:10102000009501F0E9F910B103200CE71EE02068FB
:10103000016841F40071016020680169606A421C26
:1010400062620170208D401E2085608D401E60858B
:1010500062B620680169606A421C62620170208D7C
:10106000401E2085608D401E608528E02A4641464E
:10107000204601F045FA30B1206C202801D0012033
:10108000E1E60320DFE620680169606A421C6262D3
:101090000170208D401E2085608D401E6085206877
:1010A0004169C94349070AD40169606A421C626206
:1010B0000170208D401E2085608D401E6085208D32
:1010C00000287FF441AF20203C346070A670267069
:1010D0000020B8E6020010000000FFFF040001003D
:1010E0002DE9FF4F83B00446DDE910898A46934617
:1010F000129FFFF781FC054694F83D00202803D09D
:10110000022007B0BDE8F08F192301224A4920468A
:10111000009501F071F908B10220F2E794F83C0063
:10112000012807D0012084F83C0020680168C90725
:1011300002D005E00220E4E7016841F0010101600E
:101140002068016821F400610160212084F83D00DD
:10115000402084F83E0000262664C4F82480A4F8C9
:101160002A903648E062608D2085CDE900755A46A8
:1011700051462046069B01F0B5F8D0B3206C0428F8
:1011800003D084F83C600320BBE784F83C60012076
:10119000B7E72A463946204601F0E3F958B1206CFA
:1011A000042801D00320ACE72068016841F40071F5
:1011B00001600120A5E7606A411C61622168007836
:1011C0000861208D401E80B22085618D491E618599
:1011D00023685969C94349070BD450B1606A411C5F
:1011E000616200781861208D401E2085608D401E50
:1011F0006085208D0028CCD12A463946204601F052
:10120000D5F858B1206C042801D0032079E7206874
:10121000016841F400710160012072E71F3454F845
:101220001F0C016841F4007101602020A077E6776F
:101230006677002065E70000020010000000FFFF55
:1012400000B585B000680C49884212D1C0200190D9
:10125000122002900320049001A90848FFF7D2FA57
:101260000748C16941F40011C161C06900F4001070
:10127000009005B000BD000000540040000C01408B
:101280000010024002488168027811448160704772
:101290002400002010B50748016841F010010160EA
:1012A000032000F09FF8002000F006F800F026F878
:1012B000002010BD0020024070B504460D4D4FF4D3
:1012C0007A712878B1FBF0F00B490968B1FBF0F0B6
:1012D00000F067FB08B1012070BD102C07D200227E
:1012E0002146501E00F05EF86C60002070BD0120A9
:1012F00070BD0000240000203000002008B5214807
:10130000816941F001018161816901F00101009170
:10131000C16941F08051C161C06900F08050009006
:10132000032000F05FF8002211466FF00B0000F080
:1013300039F8002211466FF00A0000F033F800225D
:1013400011466FF0090000F02DF800221146501FE1
:1013500000F028F800221146101F00F023F80022A8
:101360001146901E00F01EF800221146501E00F09B
:1013700019F80549486820F0E06040F000704860C6
:1013800008BD0000001002400000014000F01F02F4
:10139000012191404009800000F1E020C0F80011D7
:1013A00070470000F0B40D460D4B1B68C3F30223D9
:1013B000C3F10704042C00D90424191D072901D204
:1013C000002300E0DB1E012606FA04F1491E294035
:1013D00099409E40761E16403143F0BC01F0E0B9C2
:1013E0000CED00E000F00701054A10684FF6FF031E
:1013F000184040EA0120034908431060704700008C
:101400000CED00E00000FA052DE9F04704460E4619
:10141000DFF84881D8F8000000F00700B0420FD292
:10142000D8F8000020F007003043C8F80000D8F8D2
:10143000000000F00700B04202D00120BDE8F087B4
:101440002078474F800705D57868A16820F0F00024
:10145000084378602078C00748D06068012806D02B
:10146000022809D0396889070BD40120E6E73968DA
:10147000890306D40120E1E73968890101D40120FC
:10148000DCE7796821F0030101437960FFF7B4FAE2
:101490000546606841F28839012809D0022814D035
:1014A00020E0FFF7A9FA401B484501D90320C5E712
:1014B0007868C0F381000128F3D117E0FFF79CFAA8
:1014C000401B484501D90320B8E77868C0F3810084
:1014D0000228F3D10AE0FFF78FFA401B484501D9F3
:1014E0000320ABE7786810F00C0FF4D1D8F80000B7
:1014F00000F00700B0420ED9D8F8000020F0070035
:101500003043C8F80000D8F8000000F00700B042EF
:1015100001D0012092E72078400705D57868E1687E
:1015200020F4E060084378602078000706D57868EA
:10153000216920F4605040EAC100786000F03CF876
:101540007968084AC1F30311515CC8400649086034
:101550000020FFF7B1FE002070E7000000200240ED
:1015600000100240204500083000002001480068BB
:10157000704700003000002000B5FFF7F7FF044976
:101580004968044AC1F30221515CC84000BD000013
:10159000001002403045000800B5FFF7E7FF04499E
:1015A0004968044AC1F3C221515CC84000BD000033
:1015B000001002403045000885B014A090E80E00ED
:1015C000C068CDE902230191049014A00068009046
:1015D000134B5968134801F00C02042A10D0082A52
:1015E0000ED101A8C1F38342805CC9030AD55968B2
:1015F000C1F340411DF801100A4A5043B0FBF1F01D
:1016000005B0704708494843FAE7000002030405A3
:10161000060708090A0B0C0D0E0F1010010200003E
:101620000010024000127A0000093D002DE9F84F39
:101630000446D04D2078C0075BD06868C0F38100B5
:10164000012807D06868C0F3810002280AD16868C1
:10165000C00307D5286880034BD5606878BB01209C
:10166000BDE8F88F6068B0F5803F11D0A8B1B0F543
:10167000A02F1BD0286820F480302860286820F430
:1016800080202860606830B3FFF7B6F906461EE098
:10169000286840F480302860F4E7286820F480301F
:1016A0002860286820F480202860EBE7286840F450
:1016B00080202860286840F480302860E2E718E045
:1016C000FFF79AF9801B642801D90320C8E728682E
:1016D0008003F5D50DE0FFF78FF9064606E0FFF72A
:1016E0008BF9801B642801D90320B9E7286880039F
:1016F000F5D42078DFF8808280074FF0010A4FF0A0
:10170000000945D5686810F00C0F07D06868C0F371
:101710008100022812D16868C0030FD428688007AE
:1017200004D52069012801D0012099E72868616962
:1017300020F0F80040EAC100286029E02069B8B133
:10174000C8F800A0FFF758F9064606E0FFF754F97D
:10175000801B022801D9032082E728688007F5D57D
:101760002868616920F0F80040EAC10028600FE0B5
:10177000C8F80090FFF740F9064606E0FFF73CF98D
:10178000801B022801D903206AE728688007F5D466
:101790002078000726D57948A16999B1C0F800A042
:1017A000FFF72AF9064606E0FFF726F9801B022814
:1017B00001D9032054E7686A8007F5D5012001F0BC
:1017C00001F80FE0C0F80090FFF716F9064606E0B2
:1017D000FFF712F9801B022801D9032040E7686A4D
:1017E0008007F5D42078400773D50026E869C0004B
:1017F00008D4E86940F08050E861E86900F0805062
:1018000000900126DFF878B1DBF80000C00514D4A1
:10181000DBF8000040F48070CBF80000FFF7ECF834
:10182000074606E0FFF7E8F8C01B642801D903204B
:1018300016E7DBF80000C005F4D5E068012812D0F7
:10184000B0B105281DD0286A20F001002862286A5E
:1018500020F004002862E06841F2883B28B3FFF7DB
:10186000CBF807461DE0286A40F001002862F2E745
:10187000286A20F001002862286A20F0040028620B
:10188000E9E7286A40F004002862286A40F0010075
:101890002862E0E7FFF7B0F8C01B584501D90320E4
:1018A000DEE6286A8007F5D50DE0FFF7A5F80746C4
:1018B00006E0FFF7A1F8C01B584501D90320CFE689
:1018C000286A8007F5D4012E03D1E86920F0805002
:1018D000E861E069A0B36968C1F38101022947D0DA
:1018E000022805D0C8F86090FFF786F804463AE071
:1018F000C8F86090FFF780F8064606E0FFF77CF82E
:10190000801B022801D90320AAE628688001F5D4AB
:10191000206AB0F5803F05D16868A16820F40030E6
:1019200008436860D4E908010843696821F4741128
:1019300008436860C8F860A0FFF75EF8044607E057
:1019400014E0FFF759F8001B022801D9032087E6AD
:1019500028688001F5D509E0FFF74EF8001B022842
:1019600001D903207CE628688001F5D4002077E6C1
:10197000012075E60010024000004242800442420D
:10198000007000404FF0E021042804D0086920F0E6
:10199000040008617047086940F00400086170475E
:1019A000704710B5401EB0F1807F01D3012010BDFB
:1019B0004FF0E02460610F21601700F0F1FE00207D
:1019C000A06107202061002010BD10B5FFF7E8FFDF
:1019D00010BD7047704730B590F83C20012A20D0E8
:1019E000012380F83C30022280F83D2002685468D0
:1019F00024F070045460026854680D682C435460ED
:101A00000268946824F080049460026894684968CD
:101A10000C43946080F83D30002180F83C10002099
:101A200030BD022030BD10B50446002C03D094F820
:101A30003D0010B107E0012010BD002084F83C00FB
:101A4000204600F00DF8022084F83D00211D20689A
:101A500001F0C0F8012084F83D00002010BD000016
:101A600008B500680B49884212D10B48C16941F0A2
:101A70000201C161C06900F002000090002211461D
:101A80001D20FFF78FFCBDE808401D20FFF77EBC3E
:101A900008BD00000004004000100240022180F850
:101AA0003D1001680A6842F001020A60012180F8D5
:101AB0003D10002070470168CA6842F00102CA6008
:101AC0000068016841F001010160002070470221B7
:101AD00080F83D1001680A6A41F211131A4207D1D9
:101AE0000A6A9B101A4203D10A6822F001020A60B6
:101AF000012180F83D100020704770B5044694F82D
:101B00003C00012817D0012584F83C50022084F8BD
:101B10003D002068826822F0770222F47F428260D2
:101B2000086850283AD00DDC20285FD005DCA0B32F
:101B3000102864D155E0022070BD30285BD04028C9
:101B40005DD13FE0602833D070280CD0B0F5805FC5
:101B500003D0B0F5005F52D113E02068816821F016
:101B6000070181604BE0CB68D1E90121206801F0D9
:101B700067F82068816821F0770141F07701816082
:101B80003DE0CB68D1E90121206801F059F82068D7
:101B9000816841F48041816031E01DE0CA68496894
:101BA000206801F05FF85021206801F053F826E02A
:101BB000CA684968206801F066F86021206801F071
:101BC00049F81CE0CA684968206801F04BF84021D8
:101BD000206801F03FF812E00021206801F03AF897
:101BE0000DE01021206801F035F808E02021206880
:101BF00001F030F803E03021206801F02BF83C348C
:101C000065700020207070BD704770B50446206874
:101C100001694FF00005C943890716D4C168C9435B
:101C2000890712D4E91E01610120207720688069AC
:101C3000800703D02046FFF7E7FF05E0204600F0CD
:101C40009BF8204600F099F8257720680169C94380
:101C5000490718D4C168C943490714D46FF0040177
:101C60000161022020772068806910F4407F03D052
:101C70002046FFF7C9FF05E0204600F07DF820462A
:101C800000F07BF8257720680169C943090717D45C
:101C9000C168C943090713D46FF00801016104202A
:101CA00020772068C069800703D02046FFF7ACFF8B
:101CB00005E0204600F060F8204600F05EF8257749
:101CC00020680169C943C90618D4C168C943C90657
:101CD00014D46FF010010161082020772068C069DA
:101CE00010F4407F03D02046FFF78EFF05E020462A
:101CF00000F042F8204600F040F82577206801699E
:101D0000C943C90708D1C168C943C90704D1891E9D
:101D10000161204600F032F820680169C9430906D4
:101D200009D4C168C943090605D46FF08001016177
:101D30002046FFF74EFE20680169C943490609D4D1
:101D4000C168C943490605D46FF0400101612046CE
:101D500000F015F820680169C94389060BD4C168F1
:101D6000C943890607D46FF0200101612046BDE810
:101D70007040FFF72FBE70BD7047704770477047C7
:101D80007047000070B5044622681068D168526937
:101D900000F00F03002B08D1850606D58D0604D56B
:101DA0002046BDE8704000F0A3BF002B5ED002F0DB
:101DB000010301F490752B4358D0C30705D0CB0520
:101DC00003D5E36B43F00103E363430705D5D30772
:101DD00003D0E36B43F00203E363830705D5D30726
:101DE00003D0E36B43F00403E363030705D5D20795
:101DF00003D0E26B42F00802E263E26B002A2AD0D1
:101E0000800604D5880602D5204600F071FF2068C0
:101E10004069C0F38010E16B090700D400B320468D
:101E200000F04BFF20684169490615D5416921F052
:101E300040014161606B58B115494163606BFEF729
:101E400083FC002807D0606B416BBDE870400847F9
:101E50002046FFF795FF70BD2046FFF791FF70BD4C
:101E60002046FFF78DFF0020E06370BD020606D517
:101E70000A0604D52046BDE8704001F055B840067A
:101E8000F3D54806F1D52046BDE8704000F023BFE9
:101E9000AB2C000870B50446002C04D094F839002F
:101EA000002510B106E0012070BD84F838502046AE
:101EB00000F022F8242084F839002068C16821F459
:101EC0000051C160204600F061FF2068016921F4E3
:101ED000904101612068416921F02A014161206837
:101EE000C16841F40051C160E563202084F83900E5
:101EF00084F83A00002070BDF0B585B00168354F18
:101F000002200024344A0323344D4602B94220D132
:101F1000916941F480419161916901F4804100919E
:101F2000010201910290049301A92846FEF76AFC80
:101F300001960294039401A92846FEF763FC00224F
:101F400011462520FFF72EFA2520FFF71FFA05B0CE
:101F5000F0BD234FB94220D1D16941F40031D161A4
:101F6000D16901F4003100910421019102900493A0
:101F700001A92846FEF746FC08210191029403942A
:101F800001A92846FEF73EFC002211462620FFF755
:101F900009FA2620FFF7FAF9D9E7124DA942D6D15E
:101FA000D16941F48021D161D16901F4802100918E
:101FB0000196029004930C4D01A92846FEF722FCDD
:101FC000E91401910294039401A92846FEF71AFC32
:101FD000BDE7000000380140001002400008014049
:101FE0000044004000480040000C014070472DE9CB
:101FF000F84304460D4691461E4694F839002028C1
:1020000002D00220BDE8F883B5B1B9F1000F13D0BA
:1020100094F83800012811D0012084F838000027F6
:10202000E763212084F83900FEF7E6FC8046A4F837
:102030002490A4F826902DE00120E3E70220E1E7B8
:10204000E08C401EE084A068B0F5805F09D0434674
:10205000002280212046009600F099FFB0B10320B5
:10206000D0E74346002280212046009600F08FFFF3
:1020700008B10320C6E728882168C0F3080048603B
:10208000206908B16D1C05E0AD1C03E0216815F85E
:10209000010B4860E08C0028D2D143460022402149
:1020A0002046009600F073FF08B10320AAE7202025
:1020B0003834607027700020A4E77047FEE701689D
:1020C0004A69D24352050CD46FF480624A610421FC
:1020D0003030016100210160202242730173012030
:1020E0007047002070470000F8B504460D461746BB
:1020F0001E46E06A042808D0012806D010F5803F6B
:1021000003D0206B122806D00AE02068016841F451
:102110008071016004E02068016841F48071016011
:102120003B4600224FF001112046009600F064F972
:1021300008B10320F8BD2069B0F5804F12D005F436
:102140004070F02141EAD0102168086133463A46D8
:102150001249204600F08AF958B1206C042806D0B4
:102160000320F8BD216805F0FE00086104E00120AD
:10217000F8BD2168E8B20861084933463A46891F2C
:10218000204600F073F930B1206C042801D0032000
:10219000F8BD0120F8BD0020F8BD000008000100D6
:1021A0002DE9F84F0446DDE90AB60F4690461D4674
:1021B0002068016841F4806101602068016841F491
:1021C000807101604FF001195B46002249462046AC
:1021D000009600F011F910B10320BDE8F88F2168D6
:1021E00007F0FE000861DFF8F8A033465A46514672
:1021F000204600F03BF930B1206C042801D00320C8
:10220000EBE70120E9E720684169806900903246E8
:102210005946204600F0A5F958B1206C042801D099
:102220000320DAE72068016841F4007101600120B1
:10223000D3E7284608F0FF0501280ED021684FEAB1
:102240001820086132465946204600F08AF970B1DC
:10225000206C042804D00320BFE72068056108E053
:102260002068016841F4007101600120B5E7206831
:10227000056132465946204600F073F958B1206C8A
:10228000042801D00320A8E72068016841F4007108
:1022900001600120A1E72068016841F480710160BC
:1022A0005B46002249462046009600F0A5F808B19A
:1022B000032092E72168F8B240F00100086133463C
:1022C0005A465146204600F0D1F830B1206C04281F
:1022D00001D0032081E701207FE700207DE7000097
:1022E000020001002DE9F8430446DDE908970D4698
:1022F000164698462068016841F4807101604B469B
:1023000000224FF001112046009700F075F810B13F
:102310000320BDE8F883216805F0FE0008613B4614
:102320004A462149204600F0A1F830B1206C04282B
:1023300001D00320EDE70120EBE7206841698069C7
:1023400000903A464946204600F00BF958B1206CFF
:10235000042801D00320DCE72068016841F4007103
:1023600001600120D5E7F5B2B8F1010F0DD0216869
:10237000300A08613A464946204600F0F2F870B14A
:10238000206C042804D00320C3E72068056108E01E
:102390002068016841F4007101600120B9E72068FC
:1023A00005610020B5E700000200010070B5044699
:1023B0000D46164619E02046FFF781FE08B10120C0
:1023C00070BD681C11D025B1FEF716FB801BA8421A
:1023D0000BD93034206940F02000206100202060BB
:1023E000202161732073032070BD20684069C043C1
:1023F0004007E0D4002070BD2DE9F0470546DDF828
:1024000020A00F4691461E46C7F3074812E0701CF5
:1024100010D02EB1FEF7F0FAA0EB0A00B04209D9B5
:10242000002045F8300F20216973A873287303201A
:10243000BDE8F087B8F1010F0BD02868806927EA62
:1024400000000004000C0FD000244C45DFD0002019
:10245000EEE72868406927EA00000004000C01D07C
:102460000024F2E70124F0E70124EEE72DE9F0472C
:1024700004460E46154698464FF000094FF0200AD4
:10248000C6F3074729E020684069C043400513D4DC
:102490002068016841F40071016021686FF4806078
:1024A000486104202064C4F8309084F83DA084F88A
:1024B0003C900120BDE8F087681C0ED02DB1FEF7DE
:1024C0009BFAA0EB0800A84207D9C4F8309084F822
:1024D0003DA084F83C900320ECE7012F08D0206851
:1024E000806926EA00000004000CCCD10020E1E75E
:1024F0002068406926EA00000004000CF6D0C2E71C
:102500002DE9F04104460D46164600274FF02008FD
:1025100020E04069C043C0060CD421686FF0100071
:1025200048612764276384F83D8084F83C7001206B
:10253000BDE8F08125B1FEF75FFA801BA84209D9FA
:10254000206C40F02000206484F83D8084F83C70CA
:102550000320EDE720684169C9434906D9D400202A
:10256000E6E770B504460D46164619E02046FFF72B
:10257000A6FD08B1012070BD681C11D025B1FEF781
:102580003BFA801BA8420BD93034206940F0200070
:10259000206100202060202161732073032070BD22
:1025A00020684069C0430006E0D4002070BD0000F0
:1025B00008B50D48816941F020018161816901F010
:1025C00020010091816941F004018161816901F07C
:1025D00004010091816941F008018161806900F086
:1025E0000800009008BD00000010024010B50D4822
:1025F0000B4901600C49416000218160C1604FF4CA
:102600008042026141618161C1610162FEF7FAF9B4
:10261000002804D04FF49E7104A000F0F8FC10BD17
:10262000005400403C040020801A06002E2E2F5338
:1026300072632F6D61696E2E6300000010B586B065
:1026400018481749016048F69F41416000248460A2
:102650003221C16004618461FFF7E5F920B14FF4D4
:10266000A87111A000F0D3FC4FF48050029002A991
:102670000C48FFF742FA20B14FF4AB710AA000F00A
:10268000C6FC0094019469460648FFF7A4F90028A7
:1026900004D040F25D1104A000F0B9FC06B010BDFA
:1026A00000040040900400202E2E2F5372632F6DE3
:1026B00061696E2E6300000010B50D480B49016082
:1026C0004FF41651416000218160C16001610C220C
:1026D00042618161C161FFF7DDFB002804D04FF446
:1026E000B87104A000F093FC10BD00000038014058
:1026F000D00400202E2E2F5372632F6D61696E2E31
:102700006300000010B50D480B4901604FF4E13142
:10271000416000218160C16001610C2242618161E0
:10272000C161FFF7B7FB002804D040F2831104A079
:1027300000F06DFC10BD00000044004010050020BA
:102740002E2E2F5372632F6D61696E2E6300000071
:1027500010B50D480B4901604FF4E1314160002193
:102760008160C16001610C2242618161C161FFF73A
:1027700091FB002804D04FF4CB7104A000F047FC7B
:1027800010BD000000480040500500202E2E2F53A1
:1027900072632F6D61696E2E63000000FEE7704763
:1027A0000907090E002806DA00F00F0000F1E0200A
:1027B00080F8141D704700F1E02080F80014704785
:1027C0007047000008B507494FF4FA520968B1FB99
:1027D000F2F14143009100BF0098411E0091FAD2EE
:1027E00008BD00003000002030B5802813D24029F9
:1027F00011D20C4B1B790BB172B10022012301F0F5
:102800000704A340C908084D00EBC110012A05D0F8
:10281000295C9943295430BD0122EFE7295C194313
:10282000295430BD080000203C000020002805D0BD
:10283000FF224FF480610248FDF784BC0022F8E7D4
:102840003C000020014A10805180704708000020A1
:1028500010B501F071FA44F6206301227821524844
:10286000FEF778F908B1002010BD40F6C410401EF4
:102870000028FCD1AE220021782001F065FA202248
:102880000021782001F060FA10220021782001F068
:102890005BFAB0220021782001F056FAC82200210C
:1028A000782001F051FA00221146782001F04CFA0C
:1028B00010220021782001F047FA402200217820E0
:1028C00001F042FA81220021782001F03DFAFF2236
:1028D0000021782001F038FAA1220021782001F0AF
:1028E00033FAA6220021782001F02EFAA822002136
:1028F000782001F029FA3F220021782001F024FA03
:10290000A4220021782001F01FFAD3220021782090
:1029100001F01AFA00221146782001F015FAD522AA
:102920000021782001F010FAF0220021782001F037
:102930000BFAD9220021782001F006FA2222002188
:10294000782001F001FADA220021782001F0FCF968
:1029500012220021782001F0F7F9DB2200217820F3
:1029600001F0F2F920220021782001F0EDF98D220A
:102970000021782001F0E8F914220021782001F0EC
:10298000E3F9AF220021782001F0DEF90020FFF703
:102990004DFF00F075F805480021018041800121BC
:1029A0004171012010BD00003C04002008000020FF
:1029B0002DE9F04782460E469146DFF8988031783F
:1029C000B8F800000844802805D2B8F802007178F1
:1029D0000844402802D30020BDE8F08700252BE002
:1029E000AAF1200101FB0050726832F81070002437
:1029F0001EE007FA04F000040BD5B8F802004A46BE
:102A0000284481B2B8F80000204480B2FFF7ECFE01
:102A10000DE0B9F1000F1AD00022B8F802002844E6
:102A200081B2B8F80000204480B2FFF7DDFE641CDC
:102A30003078A042DDD86D1C7078A842D0D8B8F8A4
:102A4000000031780844A8F800005046C4E701228D
:102A5000E3E700000800002070B504460D46164666
:102A600009E032462946FFF7A3FF2178884201D0CA
:102A7000207870BD641C20780028F2D1207870BDC9
:102A800070B500240E4D04F1B000C2B200217820D0
:102A900001F05AF900221146782001F055F9102270
:102AA0000021782001F050F905EBC4128023402169
:102AB000782001F059F9641CE4B2082CE3D370BD0E
:102AC0003C000020704710B5FEF7DCFBBDE810406D
:102AD000FEF77BBF30B58FB0012105910804069049
:102AE00000240794099102250C950D904FF4E010F5
:102AF0000E9005A8FEF79AFD20B14FF4887113A03F
:102B000000F085FA0F200090019502944FF4806048
:102B10000390049402216846FEF776FC20B14FF43E
:102B20008F710AA000F073FAFEF720FD4FF47A715E
:102B3000B0FBF1F0FEF735FF0420FEF723FF002283
:102B40001146501EFEF72EFC0FB030BD2E2E2F5317
:102B500072632F6D61696E2E630000000D4801687D
:102B600041F00101016041680B4A11404160016878
:102B70000A4A11400160016821F480210160416826
:102B800021F4FE0141604FF41F0181600449C0033C
:102B900008607047001002400000FFF8FFFFF6FEDB
:102BA00008ED00E070B50948FFF72FF8084D4FF425
:102BB000005421462846FDF71BFF00F0ABFE2146DE
:102BC0002846BDE87040FDF713BF000090040020C8
:102BD00000100140F0B50268164C174D174E4FF02B
:102BE0008047A04205D0B84203D0A84201D0B042ED
:102BF00003D122F070034A681A43A04205D0B842BC
:102C000003D0A84201D0B04203D122F44073CA6875
:102C10001A4322F080024B69134303608A68C26240
:102C20000A688262A04201D1096901630121416100
:102C3000F0BD0000002C01400004004000080040EE
:102C400010B5846824F47F4442EA03220A432243F5
:102C5000826010BD826822F070020A4342F00701D0
:102C60008160704710B5036A046A24F001040462AD
:102C7000846924F0F00444EA021423F00A020A43AF
:102C80008461026210BD10B5036A23F01003036271
:102C90008469036A24F4704444EA023223F0A003F6
:102CA00043EA01118261016210BD10B5406A002142
:102CB000C185C184FFF764F810BD0168CA6822F4B9
:102CC0009072CA6001684A6922F001024A612021BB
:102CD00080F83A10704710B50168CA6822F04002C7
:102CE000CA60202180F83910FFF7E7F9002010BDF5
:102CF00010B590F83A10222901D0022010BD816849
:102D0000B1F5805F11D0016919B30168496801F01C
:102D10007F03816A4A1C82620B70C18D491E0904BF
:102D2000090CC1851CD0002010BD816A02693AB12E
:102D300002685268D2B20A80816A491C8162ECE75B
:102D400002685268C2F308020A80816A891C8162A3
:102D5000E3E701684A68816A4B1C83620A70DCE71A
:102D60000168CA6822F02002CA600168CA6822F4B9
:102D70008072CA6001684A6922F001024A6120211A
:102D800080F83A10FFF732F9002010BD2DE9F0412C
:102D9000044620680169E26821F440511143016151
:102DA000A16820690143606901432068C26841F25B
:102DB0000C639A430A43C26020684169A26921F406
:102DC0004071114341615749206864253226884289
:102DD00054D1FEF7E1FB00EBC00101EB001061688C
:102DE0008900B0FBF1F7FEF7D7FB00EBC00101EB68
:102DF000001061688900B0FBF1F0B0FBF5F06FF0F6
:102E00001801484307EB800006EB0010B0FBF5F01B
:102E100000F0F007FEF7C0FB00EBC00101EB001073
:102E200061688900B0FBF1F0B0FBF5F007EB00172B
:102E3000FEF7B2FB00EBC00101EB001061688900F6
:102E4000B0FBF1F8FEF7A8FB00EBC00101EB0010AE
:102E500061688900B0FBF1F0B0FBF5F06FF018018C
:102E6000484308EB800006EB0010B0FBF5F021684A
:102E700000F00F0038448860BDE8F081FEF77CFB6D
:102E800000EBC00101EB001061688900B0FBF1F7B5
:102E9000FEF772FB00EBC00101EB001061688900D6
:102EA000B0FBF1F0B0FBF5F06FF01801484307EB11
:102EB000800006EB0010B0FBF5F000F0F007FEF725
:102EC0005BFB00EBC00101EB001061688900B0FB07
:102ED000F1F0B0FBF5F007EB0017FEF74DFB00EB50
:102EE000C00101EB001061688900B0FBF1F8FEF74A
:102EF00043FB00EBC00101EB001061688900B0FBEF
:102F0000F1F0B0FBF5F06FF01801484308EB8000DA
:102F100006EB0010B0FBF5F0216800F00F0038441C
:102F20008860A9E70038014090F83910212901D0C4
:102F3000022070478168B1F5805F0CD0016A4A1C9D
:102F40000262026809785160C18C491E0904090CAB
:102F5000C18410D019E0016A02680988C1F3080130
:102F60005160016919B1016A491C0162ECE7016A0B
:102F7000891C0162E8E70168CA6822F08002CA6021
:102F80000068C16841F04001C160002070472DE930
:102F9000F04104460E4617469846069D1DE0681C03
:102FA0001BD02DB1FDF728FDA0EB0800A84214D9D5
:102FB0002068C16821F4D071C1602068416921F0A6
:102FC00001014161202084F8390084F83A00002092
:102FD00084F838000320BDE8F0812068006836EAF4
:102FE000000004D00020B842D9D00020F3E701202F
:102FF000F9E700000148FEF7C5BE0000D00400203C
:103000000148FEF7BFBE000010050020FEE7FEE706
:103010000FB4084B10B504A902AA039800F0DEF81B
:10302000044602A9002000F070FC204610BC5DF8A8
:1030300014FB00000B39000802E008C8121F08C189
:10304000002AFAD170477047002001E001C1121F29
:10305000002AFBD1704700002DE9FF5F82B00021FC
:10306000DDE90430020DDDF840B0034318D044F62A
:103070001050A2F2FF3242431514119801281FD0BC
:10308000A5EB0B00401C5FEA000A4FF000064E4F14
:10309000DFF83891B046504615D5CAF1000413E068
:1030A000119801244AA3012801D16FEA0B0102986B
:1030B000119AC0E90031C0E9024206B0BDE8F09FB4
:1030C000CBF10000DFE704460021404A491842EBFB
:1030D0000450CDE9001012E0E00707D032463B462D
:1030E00040464946FDF78DF98046894632463B46C3
:1030F00010461946FDF785F906460F466410002C68
:10310000EAD1DDE90401DDE90023BAF1000F06DAB6
:10311000FDF777F942464B46FDF773F905E0FDF7F9
:10312000E2F942464B46FDF7DEF904460E46002220
:10313000284BFDF75FFA03D84FF0FF30014607E058
:103140000022254B20463146FDF7B4F8FDF73AFA48
:10315000102409E0002C0ADB0A220023FDF742F8C4
:10316000039B30321A55641E50EA0102F2D1641CEE
:10317000039AC4F111031444119A012A03D00122C5
:1031800008430DD10AE0084304D000204FF0110B92
:10319000119072E7A3EB0B056D1E0DE05B4504DD9E
:1031A0004FF0000205F1010504E003DA4FF00002E0
:1031B000A5F10105002AECD002981199C0E902316D
:1031C000C0E9004579E70000000014400000F03F2E
:1031D000300000000000F0430000E03F2DE9FF4F09
:1031E00095B09B468946064600250FE2252877D1F3
:1031F00000242746F84A0121059400E0044316F80C
:10320000013F203B01FA03F01042F7D130782A2821
:1032100011D06FF02F033078A0F13002092A16D8B0
:10322000059A44F0020402EB820203EB42021044CE
:10323000761C0590EFE759F8042B0592002A03DA73
:10324000504244F40054059044F00204761C307857
:103250002E2816D116F8010F44F004042A280DD0A8
:103260006FF02F023078A0F13003092B09D807EB5B
:10327000870302EB4303C718761CF3E759F8047B76
:10328000761C30786C280FD006DC4C2817D06828C4
:103290000DD06A2814D104E0742810D07A280FD1F8
:1032A0000DE044F400140AE044F4801401E044F416
:1032B00040147278824202D104F58014761C761C88
:1032C000307866280BD013DC582877D009DC00282A
:1032D00075D04528F6D04628F4D047281AD19DE16C
:1032E00018E0632835D0642879D0652812D195E19B
:1032F000702873D008DC6728F1D069286FD06E2859
:103300000DD06F2806D1B5E073282CD0752875D064
:10331000782874D05A46179990476D1C75E1C4F30C
:103320000250022809D003280DD0D9F80010042833
:103330000DD00D6009F1040967E1D9F80010EA1712
:10334000C1E90052F6E7D9F800100D80F2E70D70E0
:10335000F0E719F8041B8DF8001000208DF801002B
:10336000EA46012003E059F804AB4FF0FF30610753
:103370004FF0000102D40DE008F101018846B94286
:103380000FDA8045F8DB1AF808100029F4D108E0BC
:1033900008F1010188468142FADB1AF80810002979
:1033A000F6D105985B46A0EB080721463846179AE8
:1033B00000F094FA284400EB080507E04DE029E10D
:1033C0000DE01AF8010B5A4617999047B8F1010819
:1033D000F7D25B4621463846179A13E142E00A22AB
:1033E0000092C4F302524FF0000A022A08D059F8A2
:1033F00004CB032A4FEAEC710AD00DE029E02AE061
:1034000009F1070121F00702F2E802C1914609E043
:103410000FFA8CFC4FEAEC71042A03D14FFA8CFCB2
:103420004FEAEC71002907DA0A460021DCF1000CB2
:1034300061EB02012D2202E0220504D52B228DF83A
:103440000420012203E0E20701D02022F7E79046A2
:1034500059E00A2102E010220DE010214FF0000A8D
:1034600000910BE010224FF0000A44F004040827FA
:10347000009203E008224FF0000A0092C4F30252C7
:10348000022A05D059F804CB0021032A08D009E00C
:1034900009F1070121F00702F2E802C1914605E0B7
:1034A0001FFA8CFC042A01D10CF0FF0C4FF000082D
:1034B000220728D5702806D0009B83F0100353EA1A
:1034C0000A0305D00EE040228DF80420012208E016
:1034D0005CEA010206D030228DF804208DF8050048
:1034E00002229046009B83F0080353EA0A030AD1A4
:1034F0005CEA010201D1620705D530228DF8042073
:103500004FF001087F1E582804D034A003900EA865
:1035100002900DE036A0F9E753466046009AFCF7AA
:1035200061FE84460398825C0298401E02900270FD
:103530005CEA0100F0D1029806A9081A00F1200AFD
:10354000600702D524F4803400E00127574502DDEE
:10355000A7EB0A0000E0002000EB0A0100900598AC
:103560004144401A0590E00306D45B462146179A71
:10357000059800F0B3F90544002706E001A85A4673
:10358000C05D179990476D1C7F1C4745F6DBE00333
:103590000CD55B462146179A059800F09FF9054423
:1035A00004E030205A46179990476D1C0099481E38
:1035B00000900029F5DC08E0029802995A4600784C
:1035C000491C0291179990476D1CBAF10001AAF1AC
:1035D000010AF1DC65E100000928010030313233D5
:1035E000343536373839616263646566000000003F
:1035F0003031323334353637383941424344454629
:103600000000000000F058F90544761C30780028CE
:103610007FF4ECAD19B02846BDE8F08F620700D406
:10362000062709F1070222F0070CFCE80223E14615
:1036300003F000485FEA080C02D00FF2702C0DE096
:103640005FEA045C02D50FF2682C07E05FEAC47CF5
:1036500002D00FF2602C01E0AFF2700C4FF0FF3897
:1036600023F00043CDF850C065280CD006DC452877
:1036700009D046281DD047283DD13DE0662818D006
:1036800067287ED138E00021112F01DB112000E0F6
:10369000781CCDE9000106A90EA8FFF7DDFCDDE9E5
:1036A0000F010E9A03910021009207F1010A049183
:1036B0004DE04FF000400097CDE9011006A90EA89B
:1036C000FFF7CAFCDDE90F0203920E9B119900225D
:1036D000DDF80CA00093049211B9791C00EB010AEB
:1036E000B7EB0A0004D4C0F1FF3007F1010A0490DF
:1036F000AAEB0700019044E0012F00DA0127002126
:10370000112F01DD112000E03846CDE9000106A9A6
:103710000EA8FFF7A1FCDDE90F010E9A039100212D
:1037200004910092BA4621070CD40399514500DA5E
:103730008A46BAF1010F05DD009AAAF10101515C38
:10374000302908D0B84202DA10F1040F06DA01215C
:10375000CDE9011015E0AAF10101E9E7002805DC37
:10376000049901440491AAEB000102E0411C514577
:1037700000DD8A460499401A401C01904FF0004039
:103780000290200704D40198504501DBCDF8048055
:1037900000208DF84F0002980DF14F07B0F1004F57
:1037A00025D02B200E9002984FF0020800280CDA4A
:1037B000404202902D200E9007E00A210298FCF76B
:1037C000FBFC3031029007F8011DB8F10001A8F1AF
:1037D0000108F2DC02980028EFD1791E0E980870DB
:1037E000307800F0200040F0450007F8020D12A8E4
:1037F000C01B00F107081498007800B1012000EB0D
:103800000A01019801EBE07105984144401A401EFD
:103810000590E00306D45B462146179A059800F010
:103820005DF805441498007818B15A4617999047E6
:103830006D1CE00324D55B462146179A059800F0DD
:103840004DF805441CE00498002807DBDDE903017E
:10385000884203DD0098405C179901E017993020F9
:103860005A469047049805F10105401C04900198C0
:10387000401E019004D12E205A46179990476D1C86
:10388000BAF10001AAF1010ADDDC05E017F8010B2D
:103890005A46179990476D1CB8F10001A8F101082C
:1038A000F4DC5B462146179A0598ABE62D00000034
:1038B0002B000000200000002DE9F0410446002507
:1038C0001E461746880404D405E039462020B04738
:1038D0006D1C641EF9D52846BDE8F0812DE9F04144
:1038E000044600251E469046C80301D5302700E057
:1038F0002027880404D505E041463846B0476D1CB2
:10390000641EF9D52846BDE8F0810A68531C0B6097
:1039100010707047F0B58FB0282105A8FCF719FC8E
:103920000123062100200390049003AA1C4CCDE93A
:103930000021FF2002906078E27841001948FDF7ED
:1039400071FA00B1FEE79DF80D009DF80C1040EAF9
:10395000012000B29DF80F109DF80E2041EA0221CF
:103960000DB29DF811109DF8102041EA02210EB20F
:10397000FCF706FC6FF00C073946FCF7F5FBA0607E
:103980002846FCF7FDFB3946FCF7EEFBE0603046CD
:10399000FCF7F6FB3946FCF7E7FB20610FB0F0BD02
:1039A000100000203C04002010B5002821D0114B4D
:1039B0000022001F196803E0814203D80A464968C3
:1039C0000029F9D152B11368841A9C4204D10068CD
:1039D00018441060104602E0506000E0186039B1F1
:1039E00002680B1A934203D10B681A4402604968BB
:1039F000416010BD340000202DE9F041A6B0012542
:103A00004FF47A7728211CA8FCF7A3FB00261B960D
:103A10001BA8444C8DE8A10060782B464100A27899
:103A20004148FDF7FFF99DF86C0021784FF6FF78CB
:103A300088420ED03DA11CA8FFF7EAFA28223A4896
:103A400043461CA9D430FEF7D2FAB800FCF7C8FEF2
:103A50000DE03FA11CA8FFF7DBFA282232484346BD
:103A60001CA9D430FEF7C3FAC820FCF7B9FE082021
:103A70001A9001251AA88DE8A10060782B46410014
:103A800062792948FDF72CFB1420FCF7A9FE0320DE
:103A9000199019A88DE8A100607801234100A2794E
:103AA0002148FDF71DFB1420FCF79AFE1896179687
:103AB00016962E0218A88DE8610060782B4641000A
:103AC00062791948FDF7AEF917A88DE861006078B2
:103AD0002B46410022791448FDF7A4F916A88DE879
:103AE000610060782B464100A2790F48FDF79AF9F2
:103AF000482104A8FCF72DFB9DF8580000909DF884
:103B00005C309DF860201AA104A8FFF781FA4622D4
:103B10000548434604A9D430FEF769FA26B0BDE84B
:103B2000F0810000100000203C040020434F4E4E66
:103B3000454354494F4E5F544F5F4144584C3334D2
:103B4000355F4552524F52212121200D0A000000BD
:103B5000434F4E4E454354494F4E5F544F5F41448F
:103B6000584C3334355F4F4B2020200D0A000000A5
:103B70004255463A202020504F5745525F43544CFF
:103B80002D2025582C2042575F524154452D202589
:103B9000582C20444154415F464F524D41542D20F2
:103BA0002558200D0A0000008EB0FDF773FBFEF7CC
:103BB00091FFFEF7FDFCFEF77FFDFEF7A3FDFEF78C
:103BC000C7FDFEF73BFDFEF711FDFFF715FFFEF702
:103BD0003FFE0020FEF72AFEFEF752FF14210A20C6
:103BE000FEF730FE0122294929A0FEF735FFFEF736
:103BF00047FF4FF47A70FCF7F3FDFEF71FFD2748EF
:103C0000FDF74CFF2548FDF756FFDFF894B0DFF8CD
:103C10009480DFF894A0282104A8FCF79AFA4FF0CA
:103C20002809D8F81000FCF7B4FA04460D46D8F875
:103C30000C00FCF7AEFA06460F46D8F80800FCF771
:103C4000A8FA02460B4619A104A8CDE90067CDE900
:103C50000245FFF7DDF91148FF234A4604A98030E9
:103C6000FEF7C5F90D48FF234A4604A94030FEF788
:103C7000BEF90A48FDF72BFFD8E90313114C124D8A
:103C8000D8F808000548FDF709FFC4E70000002048
:103C90003039383736353433323100009004002063
:103CA000CDCC4C3E10000020CDCC4CBE583A252E39
:103CB000336620593A252E3366205A3A252E33662C
:103CC000200D0A00CDCC4C3F9A99993FF0B50B30AE
:103CD000154D20F007010024144A0FE003688B42C1
:103CE0000BD38B4205D95E1A43184768C3E90067B6
:103CF00000E04368136002C004E0021D1068002861
:103D0000ECD12046002802D1286808B10020F0BD7F
:103D1000064A07481060074A121A22F00702C0E953
:103D2000002401202860D7E738000020340000205C
:103D300094050020900700200248401E0028FCD176
:103D40007047000090D003001CB58DF804108DF86A
:103D500005200A2100910146022301AA0148FCF72F
:103D6000B1FF1CBD3C0400202DE9F84307468846FE
:103D700015461E46701CFFF7A9FF044684F8008014
:103D8000012005E0291811F8011C2154401CC0B283
:103D9000B042F7D90A2000903346224639460448FB
:103DA000FCF790FF2046BDE8F843FFF7FDBD00009B
:103DB0003C040020000000000000000000000000A3
:103DC00000000000000000000010001000100010B3
:103DD0000010001000000010000000000028002863
:103DE00000280000000000000000000000000000AB
:103DF00000240024007C00240048007C0048004887
:103E00000000000000380054005000380014005436
:103E1000005400380010000000200054005800300A
:103E200000280054001400080000000000100028C2
:103E30000028001000340048004800340000000052
:103E40000010001000100000000000000000000042
:103E500000000000000800100020002000200020CA
:103E600000200020001000080020001000080008BA
:103E700000080008000800080010002000100038AA
:103E800000100028000000000000000000000000FA
:103E90000000000000100010007C00100010000066
:103EA0000000000000000000000000000000000012
:103EB00000000010001000100000000000000000D2
:103EC00000000038000000000000000000000000BA
:103ED00000000000000000000000001000000000D2
:103EE0000008000800100010001000100020002042
:103EF0000000000000380044004400540044004426
:103F00000044003800000000001000300050001095
:103F100000100010001000100000000000380044E5
:103F200000440004000800100020007C0000000095
:103F30000038004400040018000400040044003865
:103F40000000000000080018002800280048007C3D
:103F50000008000800000000007C004000400078DD
:103F60000004000400440038000000000038004451
:103F70000040007800440044004400380000000085
:103F8000007C000400080010001000200020002029
:103F900000000000003800440044003800440044A1
:103FA0000044003800000000003800440044004491
:103FB000003C000400440038000000000000000045
:103FC00000100000000000000000001000000000D1
:103FD00000000000000000100000000000000010C1
:103FE0000010001000000000000C00300040003005
:103FF000000C000000000000000000000000007C39
:104000000000007C00000000000000000000000034
:1040100000600018000400180060000000000000AC
:1040200000380044000400080010001000000010D8
:104030000000000000380044004C0054005C0040C8
:104040000040003800000000001000280028002870
:104050000028007C00440044000000000078004478
:104060000044007800440044004400780000000050
:104070000038004400400040004000400044003848
:104080000000000000700048004400440044004468
:104090000048007000000000007C00400040007CF0
:1040A000004000400040007C00000000007C004018
:1040B0000040007800400040004000400000000048
:1040C0000038004400400040005C004400440038D8
:1040D00000000000004400440044007C0044004410
:1040E00000440044000000000038001000100010E0
:1040F0000010001000100038000000000004000450
:104100000004000400040004004400380000000023
:10411000004400480050006000500048004800443F
:10412000000000000040004000400040004000400F
:104130000040007C000000000044006C006C005453
:1041400000440044004400440000000000440064B7
:10415000006400540054004C004C00440000000077
:104160000038004400440044004400440044003847
:104170000000000000780044004400440078004043
:1041800000400040000000000038004400440044AB
:10419000004400440054003800040000007800444B
:1041A000004400440078004800480044000000003B
:1041B000003800440040003000080004004400388B
:1041C00000000000007C0010001000100010001023
:1041D00000100010000000000044004400440044AF
:1041E0000044004400440038000000000044004443
:1041F00000440028002800280010001000000000E3
:1042000000440044005400540054006C002800286E
:1042100000000000004400280028001000100028C2
:10422000002800440000000000440044002800284A
:10423000001000100010001000000000007C0004BE
:1042400000080010001000200040007C000000006A
:1042500000180010001000100010001000100010D6
:1042600000100018002000200010001000100010A6
:1042700000080008000000000030001000100010CE
:104280000010001000100010001000300010002876
:1042900000280044000000000000000000000000B2
:1042A000000000000000000000000000000000000E
:1042B000000000FE002000100000000000000000D0
:1042C0000000000000000000000000000038004472
:1042D000003C0044004C003400000000004000405E
:1042E00000580064004400440064005800000000CE
:1042F0000000000000380044004000400044003846
:1043000000000000000400040034004C004400449D
:10431000004C0034000000000000000000380044A1
:10432000007C00400044003800000000000C001039
:10433000007C0010001000100010001000000000B1
:10434000000000000034004C00440044004C0034E5
:10435000000400780040004000580064004400441D
:104360000044004400000000001000000070001035
:1043700000100010001000100000000000100000ED
:10438000007000100010001000100010001000E07D
:1043900000400040004800500060005000480044C9
:1043A000000000000070001000100010001000104D
:1043B0000010001000000000000000000078005411
:1043C000005400540054005400000000000000009D
:1043D0000058006400440044004400440000000011
:1043E000000000000038004400440044004400384D
:1043F0000000000000000000005800640044004479
:104400000064005800400040000000000034004CF0
:1044100000440044004C003400040004000000008C
:1044200000580064004000400040004000000000D0
:10443000000000000038004400300008004400384C
:104440000000000000200020007800200020002054
:10445000002000180000000000000000004400449C
:1044600000440044004C0034000000000000000044
:10447000004400440028002800280010000000002C
:1044800000000000005400540054006C0028002874
:104490000000000000000000004400280010001090
:1044A0000028004400000000000000000044004418
:1044B000002800280010001000100060000000001C
:1044C000007C0008001000200040007C000000007C
:1044D0000018001000100010002000200010001034
:1044E0000010001800100010001000100010001044
:1044F000001000100010001000300010001000101C
:10450000000800080010001000100030000000003B
:1045100000000074004C00000000000000000000DB
:104520000000000000000000010203040607080963
:1045300000000000010203045845000800000020AC
:104540003C00000038300008944500083C00002082
:10455000540B000048300008070A0000B43D000872
:104560000000000000000000E55300322C2D310057
:10457000000000000000000000000000010000003A
:10458000100000000000000000A24A04000000002B
:044590000000000027
:04000005080000ED02
:00000001FF
