:020000040800F2
:10000000B00500209D010008A5010008A701000817
:10001000A9010008AB010008AD01000800000000C4
:10002000000000000000000000000000AF01000818
:10003000B101000800000000B30100081D1700080E
:10004000B7010008B7010008B7010008B7010008B0
:10005000B7010008B7010008B7010008B7010008A0
:10006000B7010008B7010008B7010008B701000890
:10007000B7010008B7010008B7010008B701000880
:10008000B7010008B7010008B7010008B701000870
:10009000B7010008B7010008B7010008B701000860
:1000A000B7010008B7010008B7010008B701000850
:1000B000B7010008B7010008B7010008B701000840
:1000C000B7010008B7010008B7010008B701000830
:1000D000B7010008B7010008991D0008A91D000814
:1000E000B7010008B7010008B7010008B701000810
:1000F000B7010008B7010008B7010008B701000800
:10010000B7010008B7010008B7010008B7010008EF
:10011000B7010008B7010008B7010008B7010008DF
:10012000B7010008B7010008B7010008B7010008CF
:10013000B7010008B7010008B7010008B7010008BF
:10014000B7010008B7010008B7010008B7010008AF
:10015000B7010008B7010008B7010008B70100089F
:10016000B7010008B7010008B7010008B70100088F
:10017000B7010008B7010008B7010008000000003F
:10018000B7010008B7010008DFF80CD000F0CAF88A
:100190000048004725200008B00500200648804799
:1001A00006480047FEE7FEE7FEE7FEE7FEE7FEE75C
:1001B000FEE7FEE7FEE7FEE70918000889010008F0
:1001C0002DE9F05F0546002092469B46884606468C
:1001D000814640241BE0284641464746224600F01F
:1001E00059F853465A46C01A914110D31146184641
:1001F000224600F040F82D1A67EB01084F462246D0
:100200000120002100F037F817EB00094E41201EB5
:10021000A4F10104DFDC484631462A464346BDE8E6
:10022000F09F421C10F8011B0029FBD1801A704777
:1002300070B5064601F0D6FD046805460A22002185
:10024000304600F037F82C6070BD30B50B460146E3
:1002500000202022012409E021FA02F59D4205D365
:1002600003FA02F5491B04FA02F52844151EA2F10F
:100270000102F1DC30BD202A04DB203A00FA02F151
:10028000002070479140C2F1200320FA03F3194384
:1002900090407047202A04DB203A21FA02F0002126
:1002A000704721FA02F3D040C2F120029140084386
:1002B000194670472DE9F04791460F46804604469F
:1002C000002614F8015B2DB100F03EF80068405D97
:1002D000C007F6D12B2D02D02D2D18D0641E4A4612
:1002E0003946204600F034F827B13968A14201D1DF
:1002F000C7F8008071054FF002040BD5404200287A
:1003000003DD01F06FFD0460A007BDE8F08746F44F
:100310008066E4E70028F8DA01F064FD04606FF01D
:100320000040F2E7064C074D06E0E06840F00103AC
:1003300094E8070098471034AC42F6D3FFF728FF43
:100340000C2200082C2200080048704708220008F0
:100350002DE9F05F82460078002715468B460AF1AA
:100360000104B946302801D09DB113E014F8010B07
:100370000127782803D0582801D045B10AE00DB1F3
:10038000102D07D10027102514F8010B02E00825D5
:1003900000E00A250026B0460EE005FB080005FB3C
:1003A00006F1012701EB10461FFA80F8B6F5803FF1
:1003B00000D3B94614F8010B294600F018F80028BC
:1003C000EBDABBF1000F05D00FB1641E00E054461C
:1003D000CBF80040B9F1000F06D001F003FD022177
:1003E0000160C81EBDE8F09F48EA0640FAE73A28D7
:1003F00000D2303820F02002412A01D3A2F1370088
:10040000884201D34FF0FF307047014691F8350024
:10041000022803D08020486501207047052081F81C
:1004200035000868006820F001000A6810600020AC
:10043000F3E7000070B5044600F01AF906462546B9
:10044000681C10B104480078054400BF00F010F9A2
:10045000801BA842FAD370BD58000020F8B50246B0
:100460000B460025002400200021DCE0012606FACE
:1004700001F51E6806EA0504AC4273D15E68022EDF
:1004800002D05E68122E13D1CF0802F1200656F872
:1004900027004E07F70E0F26BE40B0434F07FF0E52
:1004A0001E69BE403043CF0802F1200646F82700FF
:1004B00010684F000326BE40B0431E7906F00306C5
:1004C0004F00BE40304310605E68012E08D05E6869
:1004D000022E05D05E68112E02D05E68122E13D156
:1004E00090684F000326BE40B0434F00DE68BE4018
:1004F00030439060506801268E40B0431E79C6F3A9
:1005000000168E4030435060D0684F000326BE4036
:10051000B0434F009E68BE403043D0605E6806F036
:100520008056B6F1805F7DD100BF00260096404E18
:10053000366846F480463E4F3E603E46366806F4D6
:100540008046009600BF00BF3A4E8F0856F827003D
:100550008E07370F0F26BE40B043374EB24202D14E
:10056000002624E05EE0354EB24201D101261EE0B5
:10057000334EB24201D1022619E0324EB24201D1CD
:10058000032614E0304EB24201D104260FE02F4E74
:10059000B24201D105260AE02D4EB24201D1062613
:1005A00005E02C4EB24201D1072600E008268F0755
:1005B0003F0FBE4030431F4E8F0846F82700264E9F
:1005C0003068A0435E6806F48036B6F5803F00D1FF
:1005D0002043214E3060361D3068A0435E6806F42B
:1005E0000036B6F5003F00D120431B4E361D30606B
:1005F000361D3068A0435E6806F48016B6F5801F8D
:1006000000D12043144E08363060361D3068A043B8
:100610005E6806F40016B6F5001F00D120430E4EAA
:100620000C363060491C1029FFF420AFF8BD0000E3
:1006300044380240083801400000024000040240F3
:1006400000080240000C024000100240001402406A
:1006500000180240001C0240003C014042694A4030
:10066000426170470AB1816101E00B048361704708
:1006700001480068704700005000002003480068EF
:100680000349097808440149086070475000002078
:100690005800002010B50D48006840F400700B4968
:1006A00008600846006840F48060086008460068FA
:1006B00040F480700860032000F0CAF8002000F0C9
:1006C00007F800F02BF8002010BD0000003C0240AD
:1006D00070B504460E4800784FF47A71B1FBF0F023
:1006E0000C490968B1FBF0F5284600F03CFC08B164
:1006F000012070BD102C07D200222146501E00F0B0
:1007000068F80548046001E00120F2E70020F0E706
:10071000580000205C0000205400002008B500BFF5
:10072000002000902348006840F480402149086080
:100730000846006800F48040009000BF00BF00BF82
:1007400000200090081F006840F08050091F0860DA
:100750000846006800F08050009000BF00BF0720EE
:1007600000F076F8002211466FF00B0000F031F82F
:10077000002211466FF00A0000F02BF8002211460B
:100780006FF0090000F025F800221146501F00F01C
:1007900020F800221146101F00F01BF8002211461D
:1007A000901E00F016F800221146501E00F011F8BD
:1007B00008BD00004438024000BF00F01F020121C4
:1007C00091404209920002F1E022C2F8001100BFFC
:1007D00070472DE9F05F80460D461646002700F071
:1007E00081FF074639462A46334601F00700C0F12B
:1007F000070ABAF1040F02D94FF0040A01E0C0F170
:10080000070AD14600F1040ABAF1070F02D24FF0ED
:10081000000A01E0A0F1030AD4464FF0010A0AFAE7
:1008200009FAAAF1010A0AEA020A0AFA0CFA4FF0D6
:10083000010B0BFA0CFBABF1010B0BEA030B4AEAC1
:100840000B042146404600F055FFBDE8F09F000034
:1008500000BF00F00702064B19684FF6FF0319406E
:10086000044B0B4343EA0221014B196000BF704760
:100870000CED00E00000FA0570B504460D460CB919
:10088000012070BD5848006800F00F00A84209D24E
:1008900055490D700846006800F00F00A84201D0CD
:1008A0000120EEE7207800F0020002281DD1207818
:1008B00000F00400042805D14C48006840F4E050E2
:1008C0004A490860207800F00800082805D1474808
:1008D000006840F46040454908604448006820F0E2
:1008E000F000A168084341490860207800F0010049
:1008F000A8B36068012807D13C4808380068C0F3F5
:100900004040B8B90120BCE76068022802D06068A6
:10091000032807D1354808380068C0F3406048B95B
:100920000120AEE7314808380068C0F3400008B93C
:100930000120A6E72D48006820F003006168084305
:100940002A490860FFF794FE064609E0FFF790FE8B
:10095000801B41F28831884202D9032091E707E0E9
:100960002248006800F00C006168B0EB810FEDD107
:100970001D48006800F00F00A84209D91A490D70FF
:100980000846006800F00F00A84201D0012078E777
:10099000207800F00400042807D11448006820F4EF
:1009A000E050E168084311490860207800F0080031
:1009B000082808D10D48006820F46040216940EA09
:1009C000C1000A49086000F03DF808490968C1F310
:1009D0000311074A515CC840064908600020FFF730
:1009E00077FE00204DE70000003C0240083802403E
:1009F0006C2100085C00002001480068704700007E
:100A00005C00002000B5FFF7F7FF04490968C1F357
:100A10008221034A515CC84000BD000008380240F2
:100A20007C21000800B5FFF7E7FF04490968C1F31E
:100A30004231034A515CC84000BD00000838024002
:100A40007C2100082DE9F047002400250026A1465E
:100A50002548006800F00C0020B1042805D00828C3
:100A60003AD105E0DFF8849039E0DFF8849036E091
:100A70001D48001F006800F03F041B48001F00686D
:100A800000F4800078B11A481749091F0968C1F3BA
:100A90008811A0FB01700146224600233846FFF76B
:100AA0008FFB05460EE011480F49091F0968C1F385
:100AB0008811A0FB01700146224600233846FFF74B
:100AC0007FFB05460848001F0068C0F30140401C3A
:100AD0004600B5FBF6F902E0DFF8109000BF00BF5A
:100AE0004846BDE8F0870000083802400024F400C2
:100AF00000127A00F8B504460CB90120F8BD207840
:100B000000F00100002874D0F948006800F00C00E3
:100B100004280DD0F648006800F00C00082813D116
:100B2000F348001F006800F48000B0F5800F0BD17F
:100B3000EF4808380068C0F34040002859D060688A
:100B4000002856D10120D9E700BF6068B0F5803F8A
:100B500008D1E7480838006840F48030E449083993
:100B600008601EE06068B0F5A02F0DD1E04808389D
:100B7000006840F48020DE490839086008460068B3
:100B800040F4803008600CE0D9480838006820F450
:100B90008030D749083908600846006820F4802072
:100BA000086000BF606890B1FFF762FD054606E08F
:100BB000FFF75EFD401B642801D903209EE7CC4867
:100BC00008380068C0F340400028F1D011E0FFF77A
:100BD0004FFD054606E0FFF74BFD401B642801D999
:100BE00003208BE7C24808380068C0F34040002863
:100BF000F1D1207800F0020002285FD1BC480068E3
:100C000000F00C0058B1BA48006800F00C00082849
:100C10001CD1B748001F006800F48000B0B9B44888
:100C200008380068C0F3400020B1E068012801D016
:100C3000012063E7AE480838006820F0F800216919
:100C400040EAC100AA490839086037E0E06800B30B
:100C50000120A8490860FFF70BFD054606E0FFF7F5
:100C600007FD401B022801D9032047E7A0480838A8
:100C70000068C0F340000028F1D09D4808380068A3
:100C800020F0F800216940EAC1009949083908605C
:100C900014E0002097490860FFF7EAFC054606E0EB
:100CA000FFF7E6FC401B022801D9032026E7904805
:100CB00008380068C0F340000028F1D1207800F027
:100CC000080008282CD16069A8B101208A49086071
:100CD000FFF7CEFC054606E0FFF7CAFC401B0228E2
:100CE00001D903200AE782486C300068C0F3400055
:100CF0000028F1D014E000207F490860FFF7B8FC1D
:100D0000054606E0FFF7B4FC401B022801D903208A
:100D1000F4E677486C300068C0F340000028F1D159
:100D2000207800F00400042870D100267048383084
:100D3000006800F0805090B900BF002000906C481F
:100D40003830006840F08050694938310860084602
:100D5000006800F08050009000BF00BF0126674887
:100D6000006800F48070B0B96448006840F4807096
:100D700062490860FFF77CFC054606E0FFF778FC57
:100D8000401B022801D90320B8E65C48006800F443
:100D900080700028F2D000BFA068012808D1544814
:100DA0006830006840F001005149683108601DE07A
:100DB000A06805280DD14E486830006840F0040056
:100DC0004B49683108600846006840F0010008603F
:100DD0000CE047486830006820F001004449683161
:100DE00008600846006820F00400086000BFA068A2
:100DF000A8B1FFF73DFC054609E0FFF739FC401BB1
:100E000041F28831884202D9032077E626E038484B
:100E100068300068C0F340000028EED013E0FFF710
:100E200027FC054608E0FFF723FC401B41F2883110
:100E3000884201D9032061E62D4868300068C0F37C
:100E400040000028EFD1012E07D129483830006832
:100E500020F0805026493831086000BFA069B8B33F
:100E60002348006800F00C0008285ED0A069022822
:100E700046D100201F490866FFF7FAFB054606E049
:100E8000FFF7F6FB401B022801D9032036E618487D
:100E900008380068C0F340600028F1D1D4E90701A8
:100EA0000843616A40EA81110122A06AC2EB500046
:100EB00041EA00412C20005D41EA00600C49091F15
:100EC000086001200B490866FFF7D2FB054607E0E2
:100ED0002DE0FFF7CDFB401B022801D903200DE6D2
:100EE000034808380068C0F340600028F1D01EE0D5
:100EF0000838024000004742800E47420070004020
:100F000000200C490866FFF7B3FB054606E0FFF733
:100F1000AFFB401B022801D90320EFE5064800681B
:100F2000C0F340600028F2D101E00120E6E5002096
:100F3000E4E500000000474200380240042808D1E0
:100F40004FF0E021096941F004014FF0E022116106
:100F500007E04FF0E021096921F004014FF0E022A1
:100F600011617047704770B504462546681EB0F1A0
:100F7000807F01D301200FE0681E4FF0E02148611F
:100F80000F214FF0FF3000F0B5FB00204FF0E021C3
:100F9000886107200861002070BD10B5FFF7E2FFEF
:100FA00010BD70472DE9F0470446206805682068A9
:100FB000C668206847694FF00008C14605F00F0871
:100FC000B8F1000F0AD105F0200038B106F020007A
:100FD00020B1204600F074FCBDE8F087B8F1000FA6
:100FE0006DD007F0010018B906F49070002866D0A3
:100FF00005F0010030B106F4807018B1E06B40F0EC
:101000000100E06305F0040030B107F0010018B101
:10101000E06B40F00200E06305F0020030B107F041
:10102000010018B1E06B40F00400E06305F0080037
:1010300030B107F0010018B1E06B40F00800E06348
:10104000E06B68B305F0200028B106F0200010B175
:10105000204600F035FC20684069C0F38019E06B41
:1010600000F0080010B9B9F1000F22D0204600F0BE
:1010700007FC2068406900F04000B0B1206840697A
:1010800020F0400021684861606B50B11748616BE7
:101090000865606BFFF7B9F910B1606B016D8847A7
:1010A0000CE02046FFF77DFF08E02046FFF779FFC0
:1010B00004E02046FFF775FF0020E0638CE705F0B1
:1010C000800030B106F0800018B1204600F0FAFD33
:1010D00082E705F0400030B106F0400018B120462C
:1010E00000F0DEFB78E700BF76E700006D1800082F
:1010F00010B504460CB9012010BDA06900B100E094
:1011000000BF94F8390028B9002084F83800204640
:1011100000F028F8242084F839002068C06820F402
:1011200000502168C860204600F018FC2068006963
:1011300020F49040216808612068406920F02A006E
:10114000216848612068C06840F400502168C86088
:101150000020E063202084F8390084F83A00002061
:10116000CAE7000010B586B00446334920688842BB
:1011700026D100BF002000903048006840F40030C5
:101180002E4908600846006800F40030009000BF57
:1011900000BF0C2001900220029001200390032048
:1011A00004900720059001A92548FFF757F9002270
:1011B00011462620FFF70DFB2620FFF7FDFA38E049
:1011C00020492068884234D100BF002000901B488D
:1011D000006840F48020194908600846006800F45F
:1011E0008020009000BF00BFC81401900220029030
:1011F00001200390032004900720059001A91248C4
:10120000FFF72CF94FF4807001900220029001202A
:101210000390032004900720059001A90B48FFF7D5
:101220001DF9002211462720FFF7D3FA2720FFF7E8
:10123000C3FA06B010BD0000004400404038024030
:10124000000002400048004000040240000C024040
:1012500010B5034693F83A00202829D101B10AB904
:10126000012010BD00BF93F83800012801D10220F1
:10127000F7E7012083F8380000BF99629A85DA8584
:101280000020D863222083F83A0000BF002083F8B2
:10129000380000BF1868406940F001001C686061B8
:1012A0001868C06840F490701C68E0600020D8E7BF
:1012B0000220D6E770B505461348007840B90024EF
:1012C00004E0002011490855601CC4B2642CF8DB0E
:1012D0000F4800780D280AD00D4801780A48027896
:1012E0000078401C084B18700848815405E0002025
:1012F0000549087001200749087001220449284661
:10130000FFF7A6FF70BD0000040000204801002088
:1013100005000020070000202DE9F84304460D4693
:1013200016461F464FF0000994F8390020285CD17A
:1013300005B116B90120BDE8F88300BF94F8380064
:10134000012801D10220F6E7012084F8380000BF0F
:101350000020E063212084F83900FFF789F98146F5
:10136000A684E6842BE0E08C401EE084A068B0F503
:10137000805F16D14B46002280212046009700F066
:10138000D5FC08B10320D6E7A846B8F80000C0F3A2
:10139000080021684860206908B9AD1C0FE06D1C89
:1013A0000DE04B46002280212046009700F0BEFC55
:1013B00008B10320BFE715F8010B21684860E08CF5
:1013C0000028D0D14B46002240212046009700F053
:1013D000ADFC08B10320AEE7202084F8390000BF3F
:1013E000002084F8380000BFA5E70220A3E770477B
:1013F00000B587B000BF002001908D48006840F024
:1014000010008B4908600846006800F01000019049
:1014100000BF00BF00BF002001900846006840F0F8
:10142000040008600846006800F00400019000BF56
:1014300000BF00BF002001900846006840F0800017
:1014400008600846006800F08000019000BF00BFFF
:1014500000BF002001900846006840F001000860CD
:101460000846006800F00100019000BF00BF00BF07
:10147000002001900846006840F00200086008461D
:10148000006800F00200019000BF00BF00BF002014
:1014900001900846006840F00800086008460068AF
:1014A00000F00800019000BF00BF00220821614841
:1014B000FFF7D8F8012211465F48FFF7D3F8002262
:1014C0004FF210015D48FFF7CDF80820029001208F
:1014D000039000200490059002A95648FEF7BEFF35
:1014E00001200290039000200490059002A9524828
:1014F000FEF7B4FF08200290022003900020049021
:1015000005900520069002A94B48FEF7A7FF012091
:1015100002904B4803900020049002A94948FEF72E
:101520009DFF10200290022003900020049005905F
:101530000620069002A94348FEF790FFE0200290A3
:10154000022003900020049005900520069002A937
:101550003C48FEF783FF0420029000200390049093
:1015600002A93948FEF77AFF4FF48060029002200A
:1015700003900020049005900520069002A93248AF
:10158000FEF76CFF4FF21000029001200390002044
:101590000490059002A92948FEF760FF4FF4A4507B
:1015A00002900220039000200490059006200690EF
:1015B00002A92148FEF752FF4FF40070029000206C
:1015C0000390049002A91F48FEF748FF4FF4E05033
:1015D0000290022003900020049005900A200690BB
:1015E00002A91848FEF73AFF20200290002003903D
:1015F000049002A91148FEF731FF4FF410700290D9
:1016000012200390012004900020059004200690F1
:1016100002A90D48FEF722FF02200290084803901D
:101620000020049002A90348FEF718FF07B000BD90
:10163000303802400010024000080240000C024016
:1016400000001210000002400004024010B50C48D7
:101650000C4908604FF4E13048600021094881607E
:10166000C16001610C21416100218161C161FFF70D
:101670003FFD20B14FF4807103A000F09DFB10BD31
:1016800000440040640000202E2E2F5372632F6D03
:1016900061696E2E6300000010B50C480C490860AB
:1016A0004FF416504860002109488160C160016113
:1016B0000C21416100218161C161FFF719FD20B159
:1016C00040F2131103A000F077FB10BD004800406A
:1016D000A40000202E2E2F5372632F6D61696E2E91
:1016E0006300000002480068C0F302207047000059
:1016F0000CED00E010B5002807DA0A07140E054AC1
:1017000000F00F031B1FD45403E00A07130E024A14
:10171000135410BD18ED00E000E400E010B5FEF732
:10172000ADFFFFF73AFC10BD10B592B000BF00202E
:1017300000902F48006840F080502D49086008460E
:10174000006800F08050009000BF00BF00BF002084
:1017500000902848006840F4804026490860084608
:10176000006800F48040009000BF00BF0120069098
:101770000004079002200C9041050D9108210E9164
:101780004FF4A8710F91022110910721119106A821
:10179000FFF7B0F918B1D52117A000F00DFB0F200D
:1017A000019002200290002003904FF4A05004907A
:1017B0004FF480500590052101A8FFF75DF818B19E
:1017C000E3210DA000F0F8FAFFF716F94FF47A7153
:1017D000B0FBF1F42046FFF7C6FB0420FFF7AEFB99
:1017E00000221146501EFEF7F4FF12B010BD00009B
:1017F00040380240007000402E2E2F5372632F6D30
:1018000061696E2E630000001448006840F47000A7
:10181000124908601248006840F001001049086051
:1018200000200F49083108600D4800680D49084044
:101830000B4908600C48091D0860081F006820F467
:101840008020091F0860002005490C3108604FF016
:1018500000600249803908607047000088ED00E0B0
:1018600000380240FFFFF6FE1030002470B5054638
:10187000AC6B0020E085E0842046FFF792FB70BD52
:101880000168C96821F490710268D16001684969F2
:1018900021F0010102685161202180F83A1070475F
:1018A00010B504462068C06820F040002168C86078
:1018B000202084F839002046FFF799FD002010BD54
:1018C00070B5044694F83A00222844D1A068B0F5D7
:1018D000805F13D1A56A206940B920684068C0F3D1
:1018E00008002880A06A801CA06219E02068406877
:1018F000C0B22880A06A401CA06211E0206938B9FB
:1019000020684068C1B2A26A501CA062117007E052
:101910002068406800F07F01A26A501CA06211702C
:10192000E08D401E80B2E08598B92068C06820F440
:1019300090702168C8602068406920F0010021682B
:101940004861202084F83A002046FFF7B3FC0020CD
:1019500070BD0020FCE70220FAE700002DE9F0410D
:10196000044600252068056925F44055E0680543D4
:10197000206805612068C56849F20C6085432169CB
:10198000A068084361690843E1690843054320688A
:10199000C5602068456925F44075A0690543206845
:1019A0004561E069B0F5004F7ED1C44920688842A6
:1019B00003D0C349206888425DD1FFF733F800EBBC
:1019C000C00101EB001061684900B0FBF1F0642137
:1019D000B0FBF1F00601FFF725F800EBC00101EBC9
:1019E000001061684900B0FBF1F7FFF71BF800EB4E
:1019F000C00101EB001061684900B0FBF1F0642107
:101A0000B0FBF1F000EBC00101EB0010A7EB800090
:101A1000322101EBC0006421B0FBF1F000F0F800CE
:101A200006EB4006FEF7FEFF00EBC00101EB0010E5
:101A300061684900B0FBF1F7FEF7F4FF00EBC0016D
:101A400001EB001061684900B0FBF1F06421B0FBCC
:101A5000F1F000EBC00101EB0010A7EB8000322198
:101A600001EBC0006421B0FBF1F000F0070030444E
:101A70002168886020E1FEF7C5FF00EBC00101EBA3
:101A8000001061684900B0FBF1F06421B0FBF1F097
:101A90000601FEF7B7FF00EBC00101EB0010616823
:101AA0004900B0FBF1F700E045E0FEF7ABFF00EBCB
:101AB000C00101EB001061684900B0FBF1F0642146
:101AC000B0FBF1F000EBC00101EB0010A7EB8000D0
:101AD000322101EBC0006421B0FBF1F000F0F8000E
:101AE00006EB4006FEF78EFF00EBC00101EB001095
:101AF00061684900B0FBF1F7FEF784FF00EBC0011D
:101B000001EB001061684900B0FBF1F06421B0FB0B
:101B1000F1F000EBC00101EB0010A7EB80003221D7
:101B200001EBC0006421B0FBF1F000F0070030448D
:101B300021688860C0E061492068884203D060491C
:101B4000206888425CD1FEF76DFF00EBC00101EB1D
:101B5000001061688900B0FBF1F6FEF763FF00EB4F
:101B6000C00101EB001061688900B0FBF1F0642155
:101B7000B0FBF1F000EBC00101EB0010A6EB800020
:101B8000322101EB00106421B0FBF1F000F0F0060F
:101B9000FEF748FF00EBC00101EB0010616889000F
:101BA000B0FBF1F06421B0FBF1F006EB0016FEF79C
:101BB00039FF00EBC00101EB001061688900B0FB48
:101BC000F1F7FEF72FFF00EBC00101EB0010616899
:101BD0008900B0FBF1F06421B0FBF1F000EBC00133
:101BE00001EB0010A7EB8000322101EB0010642113
:101BF000B0FBF1F000F00F003044216888605BE03A
:101C0000FEF700FF00EBC00101EB001061688900E6
:101C1000B0FBF1F6FEF7F6FE00EBC00101EB0010A1
:101C200061688900B0FBF1F06421B0FBF1F000EBDA
:101C3000C00101EB0010A6EB8000322101EB001087
:101C40006421B0FBF1F000F0F006FEF7DBFE00EBE4
:101C5000C00101EB001061688900B0FBF1F0642164
:101C6000B0FBF1F006EB0016FEF7CCFE00EBC00176
:101C700001EB001061688900B0FBF1F7FEF7C2FECE
:101C800000EBC00101EB001061688900B0FBF1F0CE
:101C90006421B0FBF1F000EBC00101EB0010A7EBF9
:101CA0008000322101EB00106421B0FBF1F000F064
:101CB0000F00304421688860BDE8F08100100140C9
:101CC00000140140014691F8390021282CD1886880
:101CD000B0F5805F0FD10A6A1088C0F308000B6866
:101CE0005860086918B9086A801C086209E0086A27
:101CF000401C086205E00B6A581C086218780B68E3
:101D00005860C88C401E80B2C88458B90868C06842
:101D100020F080000B68D8600868C06840F0400080
:101D20000B68D860002070470220FCE72DE9F041E5
:101D300004460D4617469846069E21E0701CF8B1F1
:101D40002EB1FEF795FCA0EB0800B04218D9206830
:101D5000C06820F4D0702168C8602068406920F015
:101D6000010021684861202084F8390084F83A0095
:101D700000BF002084F8380000BF0320BDE8F081D8
:101D8000206800682840A84201D1012000E000201E
:101D9000B842D3D00020F1E710B50248FFF702F9AE
:101DA00010BD00006400002010B50248FFF7FAF8EB
:101DB00010BD0000A400002000BFFEE70FB4084BD8
:101DC00010B504A902AA039800F020F8044602A95D
:101DD000002000F0F7F8204610BC5DF814FB00006E
:101DE000C51F0008004870476000002002E008C8D6
:101DF000121F08C1002AFAD170477047002001E085
:101E000001C1121F002AFBD1704700002DE9FF4FCE
:101E10008BB09A460F460546002606E025280BD0D3
:101E200052460D9990476D1C761C28780028F5D1F4
:101E30000FB03046BDE8F08F0024A0460122604973
:101E400000E0044315F8013F203B02FA03F008428A
:101E5000F7D128782E2817D115F8010F44F0040483
:101E60002A280ED06FF02F022878A0F1300109291E
:101E70000AD808EB880102EB410100EB01086D1C58
:101E8000F2E757F8048B6D1C287869283ED006DCF1
:101E90000028CDD063280BD0642804D136E0732805
:101EA00010D075284BD052460D999047761C85E08E
:101EB00017F8040B8DF8000000208DF80100E946AA
:101EC000012003E057F8049B4FF0FF3061074FF00B
:101ED000000401D40AE0641C44450DDA8442FADBB4
:101EE00019F804100029F6D106E0641C8442FCDBDA
:101EF00019F804100029F8D1264404E019F8010B60
:101F000052460D999047641EF8D257E001CF4FF02A
:101F10000A0B002802DA40422D2102E0210504D5F7
:101F20002B218DF82410012103E0E10705D02021A9
:101F3000F7E70DF1200908910CE00021F9E701CF46
:101F40004FF00A0BF9E75946FEF77FF901F130022D
:101F500009F8012D0028F6D1ADEB090000F1200BA6
:101F6000600701D44FF00108D84502DDA8EB0B0053
:101F700000E000208046002406E009A85246005DEB
:101F80000D999047641C761C08988442F5DB04E0A8
:101F9000302052460D999047761CB8F10001A8F107
:101FA0000108F5DC05E019F8010B52460D99904740
:101FB000761CBBF10001ABF1010BF4DC6D1C34E7C6
:101FC000092801000A68531C0B601070704700005C
:101FD0002DE9F04104460D460026641C03E02078FC
:101FE000A855761C641C2078302802DB207839281C
:101FF000F5DD20782D28F2D00020A8552A4606A12C
:102000000748FFF7DBFE00270548FEF711F90746F2
:102010003846BDE8F08100002573200D0A0000005D
:10202000E400002086B0FEF735FBFFF77DFBFFF7ED
:10203000DFF9FFF70BFBFFF72FFB01223849394887
:10204000FFF706F96AE04FF4FA70FEF7F3F90020A3
:102050000390049005903448007800285DD000205B
:1020600031490870314A32A13348FFF7A7FE3248A0
:10207000FEF7D7F8314908600846008882B24FF46D
:102080007A732D492748FFF747F9284C1EE020783E
:10209000582804D0592809D05A2815D10DE002A992
:1020A0002046FFF795FF264908600DE001A920466C
:1020B000FFF78EFF2349086006E001A92046FFF7DD
:1020C00087FF2149086000BF00BF641C20780D28ED
:1020D00004D0207810B120780A28D8D11A48006896
:1020E000009018480368164818A102681248FFF7C4
:1020F00065FE1148FEF795F810490860084600880B
:1021000082B24FF47A730C490648FFF705F94FF491
:1021100000411548FEF7A2FA00BF00BF93E7000098
:102120000500002064000020070000204801002076
:102130002573200D0A000000E400002000000020AC
:10214000080000200C0000201000002058313A2028
:1021500025642C2059313A2025642C205A313A200C
:1021600025640D0A00000000000C02400000000081
:102170000000000001020304060708090000000037
:102180000102030400404040404040404040414183
:10219000414141404040404040404040404040403C
:1021A00040404040400502020202020202020202D6
:1021B00002020202022020202020202020202002D3
:1021C0000202020202029090909090901010101063
:1021D00010101010101010101010101010101010FF
:1021E0000202020202028888888888880808080893
:1021F000080808080808080808080808080808085F
:102200000202020240000000852100082C22000882
:102210000000002064000000EC1D0008902200086F
:10222000640000204C050000FC1D000800000000B8
:10223000000000000000000000000000000000009E
:10224000000000000000000000000000000000008E
:10225000000000000000000000000000000000007E
:10226000000000000000000000000000000000006E
:10227000000000000000000000000000000000005E
:1022800010000000010000000024F4000000000025
:040000050800018965
:00000001FF
